{
  "abi": [
    {
      "type": "constructor",
      "inputs": [
        {
          "name": "_l1ChainId",
          "type": "uint256",
          "internalType": "uint256"
        },
        {
          "name": "_bridgeHub",
          "type": "address",
          "internalType": "address"
        },
        {
          "name": "",
          "type": "address",
          "internalType": "address"
        },
        {
          "name": "_nativeTokenVault",
          "type": "address",
          "internalType": "address"
        },
        {
          "name": "_messageRoot",
          "type": "address",
          "internalType": "address"
        }
      ],
      "stateMutability": "nonpayable"
    },
    {
      "type": "function",
      "name": "BRIDGE_HUB",
      "inputs": [],
      "outputs": [
        {
          "name": "",
          "type": "address",
          "internalType": "contract IBridgehub"
        }
      ],
      "stateMutability": "view"
    },
    {
      "type": "function",
      "name": "L1_ASSET_TRACKER",
      "inputs": [],
      "outputs": [
        {
          "name": "",
          "type": "address",
          "internalType": "address"
        }
      ],
      "stateMutability": "view"
    },
    {
      "type": "function",
      "name": "L1_CHAIN_ID",
      "inputs": [],
      "outputs": [
        {
          "name": "",
          "type": "uint256",
          "internalType": "uint256"
        }
      ],
      "stateMutability": "view"
    },
    {
      "type": "function",
      "name": "MESSAGE_ROOT",
      "inputs": [],
      "outputs": [
        {
          "name": "",
          "type": "address",
          "internalType": "contract IMessageRoot"
        }
      ],
      "stateMutability": "view"
    },
    {
      "type": "function",
      "name": "NATIVE_TOKEN_VAULT",
      "inputs": [],
      "outputs": [
        {
          "name": "",
          "type": "address",
          "internalType": "contract INativeTokenVault"
        }
      ],
      "stateMutability": "view"
    },
    {
      "type": "function",
      "name": "acceptOwnership",
      "inputs": [],
      "outputs": [],
      "stateMutability": "nonpayable"
    },
    {
      "type": "function",
      "name": "assetMigrationNumber",
      "inputs": [
        {
          "name": "assetId",
          "type": "bytes32",
          "internalType": "bytes32"
        }
      ],
      "outputs": [
        {
          "name": "migrationNumber",
          "type": "uint256",
          "internalType": "uint256"
        }
      ],
      "stateMutability": "view"
    },
    {
      "type": "function",
      "name": "assetSettlementLayer",
      "inputs": [
        {
          "name": "assetId",
          "type": "bytes32",
          "internalType": "bytes32"
        }
      ],
      "outputs": [
        {
          "name": "settlementLayer",
          "type": "uint256",
          "internalType": "uint256"
        }
      ],
      "stateMutability": "view"
    },
    {
      "type": "function",
      "name": "chainBalance",
      "inputs": [
        {
          "name": "chainId",
          "type": "uint256",
          "internalType": "uint256"
        },
        {
          "name": "assetId",
          "type": "bytes32",
          "internalType": "bytes32"
        }
      ],
      "outputs": [
        {
          "name": "balance",
          "type": "uint256",
          "internalType": "uint256"
        }
      ],
      "stateMutability": "view"
    },
    {
      "type": "function",
      "name": "confirmMigrationOnGateway",
      "inputs": [
        {
          "name": "_chainId",
          "type": "uint256",
          "internalType": "uint256"
        },
        {
          "name": "_assetId",
          "type": "bytes32",
          "internalType": "bytes32"
        },
        {
          "name": "_amount",
          "type": "uint256",
          "internalType": "uint256"
        },
        {
          "name": "_isL1ToGateway",
          "type": "bool",
          "internalType": "bool"
        }
      ],
      "outputs": [],
      "stateMutability": "nonpayable"
    },
    {
      "type": "function",
      "name": "confirmMigrationOnL2",
      "inputs": [
        {
          "name": "",
          "type": "uint256",
          "internalType": "uint256"
        },
        {
          "name": "_assetId",
          "type": "bytes32",
          "internalType": "bytes32"
        },
        {
          "name": "",
          "type": "uint256",
          "internalType": "uint256"
        },
        {
          "name": "_migrationNumber",
          "type": "uint256",
          "internalType": "uint256"
        }
      ],
      "outputs": [],
      "stateMutability": "nonpayable"
    },
    {
      "type": "function",
      "name": "getBalanceChange",
      "inputs": [
        {
          "name": "_chainId",
          "type": "uint256",
          "internalType": "uint256"
        }
      ],
      "outputs": [
        {
          "name": "assetId",
          "type": "bytes32",
          "internalType": "bytes32"
        },
        {
          "name": "amount",
          "type": "uint256",
          "internalType": "uint256"
        }
      ],
      "stateMutability": "nonpayable"
    },
    {
      "type": "function",
      "name": "handleChainBalanceDecrease",
      "inputs": [
        {
          "name": "_tokenOriginChainId",
          "type": "uint256",
          "internalType": "uint256"
        },
        {
          "name": "_chainId",
          "type": "uint256",
          "internalType": "uint256"
        },
        {
          "name": "_assetId",
          "type": "bytes32",
          "internalType": "bytes32"
        },
        {
          "name": "_amount",
          "type": "uint256",
          "internalType": "uint256"
        },
        {
          "name": "",
          "type": "bool",
          "internalType": "bool"
        }
      ],
      "outputs": [],
      "stateMutability": "nonpayable"
    },
    {
      "type": "function",
      "name": "handleChainBalanceIncrease",
      "inputs": [
        {
          "name": "_chainId",
          "type": "uint256",
          "internalType": "uint256"
        },
        {
          "name": "_assetId",
          "type": "bytes32",
          "internalType": "bytes32"
        },
        {
          "name": "_amount",
          "type": "uint256",
          "internalType": "uint256"
        },
        {
          "name": "",
          "type": "bool",
          "internalType": "bool"
        }
      ],
      "outputs": [],
      "stateMutability": "nonpayable"
    },
    {
      "type": "function",
      "name": "initialize",
      "inputs": [],
      "outputs": [],
      "stateMutability": "nonpayable"
    },
    {
      "type": "function",
      "name": "initiateGatewayToL1MigrationOnGateway",
      "inputs": [
        {
          "name": "_chainId",
          "type": "uint256",
          "internalType": "uint256"
        },
        {
          "name": "_assetId",
          "type": "bytes32",
          "internalType": "bytes32"
        }
      ],
      "outputs": [],
      "stateMutability": "nonpayable"
    },
    {
      "type": "function",
      "name": "initiateL1ToGatewayMigrationOnL2",
      "inputs": [
        {
          "name": "_assetId",
          "type": "bytes32",
          "internalType": "bytes32"
        }
      ],
      "outputs": [],
      "stateMutability": "nonpayable"
    },
    {
      "type": "function",
      "name": "isMinterChain",
      "inputs": [
        {
          "name": "chainId",
          "type": "uint256",
          "internalType": "uint256"
        },
        {
          "name": "assetId",
          "type": "bytes32",
          "internalType": "bytes32"
        }
      ],
      "outputs": [
        {
          "name": "isMinter",
          "type": "bool",
          "internalType": "bool"
        }
      ],
      "stateMutability": "view"
    },
    {
      "type": "function",
      "name": "owner",
      "inputs": [],
      "outputs": [
        {
          "name": "",
          "type": "address",
          "internalType": "address"
        }
      ],
      "stateMutability": "view"
    },
    {
      "type": "function",
      "name": "parseInteropBundle",
      "inputs": [
        {
          "name": "_bundleData",
          "type": "bytes",
          "internalType": "bytes"
        }
      ],
      "outputs": [
        {
          "name": "interopBundle",
          "type": "tuple",
          "internalType": "struct InteropBundle",
          "components": [
            {
              "name": "version",
              "type": "bytes1",
              "internalType": "bytes1"
            },
            {
              "name": "destinationChainId",
              "type": "uint256",
              "internalType": "uint256"
            },
            {
              "name": "interopBundleSalt",
              "type": "bytes32",
              "internalType": "bytes32"
            },
            {
              "name": "calls",
              "type": "tuple[]",
              "internalType": "struct InteropCall[]",
              "components": [
                {
                  "name": "version",
                  "type": "bytes1",
                  "internalType": "bytes1"
                },
                {
                  "name": "shadowAccount",
                  "type": "bool",
                  "internalType": "bool"
                },
                {
                  "name": "to",
                  "type": "address",
                  "internalType": "address"
                },
                {
                  "name": "from",
                  "type": "address",
                  "internalType": "address"
                },
                {
                  "name": "value",
                  "type": "uint256",
                  "internalType": "uint256"
                },
                {
                  "name": "data",
                  "type": "bytes",
                  "internalType": "bytes"
                }
              ]
            },
            {
              "name": "bundleAttributes",
              "type": "tuple",
              "internalType": "struct BundleAttributes",
              "components": [
                {
                  "name": "executionAddress",
                  "type": "address",
                  "internalType": "address"
                },
                {
                  "name": "unbundlerAddress",
                  "type": "address",
                  "internalType": "address"
                }
              ]
            }
          ]
        }
      ],
      "stateMutability": "pure"
    },
    {
      "type": "function",
      "name": "parseInteropCall",
      "inputs": [
        {
          "name": "_callData",
          "type": "bytes",
          "internalType": "bytes"
        }
      ],
      "outputs": [
        {
          "name": "fromChainId",
          "type": "uint256",
          "internalType": "uint256"
        },
        {
          "name": "assetId",
          "type": "bytes32",
          "internalType": "bytes32"
        },
        {
          "name": "transferData",
          "type": "bytes",
          "internalType": "bytes"
        }
      ],
      "stateMutability": "pure"
    },
    {
      "type": "function",
      "name": "parseTokenData",
      "inputs": [
        {
          "name": "_tokenData",
          "type": "bytes",
          "internalType": "bytes"
        }
      ],
      "outputs": [
        {
          "name": "originChainId",
          "type": "uint256",
          "internalType": "uint256"
        },
        {
          "name": "name",
          "type": "bytes",
          "internalType": "bytes"
        },
        {
          "name": "symbol",
          "type": "bytes",
          "internalType": "bytes"
        },
        {
          "name": "decimals",
          "type": "bytes",
          "internalType": "bytes"
        }
      ],
      "stateMutability": "pure"
    },
    {
      "type": "function",
      "name": "pendingOwner",
      "inputs": [],
      "outputs": [
        {
          "name": "",
          "type": "address",
          "internalType": "address"
        }
      ],
      "stateMutability": "view"
    },
    {
      "type": "function",
      "name": "processLogsAndMessages",
      "inputs": [
        {
          "name": "_processLogsInputs",
          "type": "tuple",
          "internalType": "struct ProcessLogsInput",
          "components": [
            {
              "name": "logs",
              "type": "tuple[]",
              "internalType": "struct L2Log[]",
              "components": [
                {
                  "name": "l2ShardId",
                  "type": "uint8",
                  "internalType": "uint8"
                },
                {
                  "name": "isService",
                  "type": "bool",
                  "internalType": "bool"
                },
                {
                  "name": "txNumberInBatch",
                  "type": "uint16",
                  "internalType": "uint16"
                },
                {
                  "name": "sender",
                  "type": "address",
                  "internalType": "address"
                },
                {
                  "name": "key",
                  "type": "bytes32",
                  "internalType": "bytes32"
                },
                {
                  "name": "value",
                  "type": "bytes32",
                  "internalType": "bytes32"
                }
              ]
            },
            {
              "name": "messages",
              "type": "bytes[]",
              "internalType": "bytes[]"
            },
            {
              "name": "chainId",
              "type": "uint256",
              "internalType": "uint256"
            },
            {
              "name": "batchNumber",
              "type": "uint256",
              "internalType": "uint256"
            },
            {
              "name": "chainBatchRoot",
              "type": "bytes32",
              "internalType": "bytes32"
            },
            {
              "name": "messageRoot",
              "type": "bytes32",
              "internalType": "bytes32"
            }
          ]
        }
      ],
      "outputs": [],
      "stateMutability": "nonpayable"
    },
    {
      "type": "function",
      "name": "receiveMigrationOnL1",
      "inputs": [
        {
          "name": "_finalizeWithdrawalParams",
          "type": "tuple",
          "internalType": "struct FinalizeL1DepositParams",
          "components": [
            {
              "name": "chainId",
              "type": "uint256",
              "internalType": "uint256"
            },
            {
              "name": "l2BatchNumber",
              "type": "uint256",
              "internalType": "uint256"
            },
            {
              "name": "l2MessageIndex",
              "type": "uint256",
              "internalType": "uint256"
            },
            {
              "name": "l2Sender",
              "type": "address",
              "internalType": "address"
            },
            {
              "name": "l2TxNumberInBatch",
              "type": "uint16",
              "internalType": "uint16"
            },
            {
              "name": "message",
              "type": "bytes",
              "internalType": "bytes"
            },
            {
              "name": "merkleProof",
              "type": "bytes32[]",
              "internalType": "bytes32[]"
            }
          ]
        }
      ],
      "outputs": [],
      "stateMutability": "nonpayable"
    },
    {
      "type": "function",
      "name": "registerLegacyToken",
      "inputs": [
        {
          "name": "_assetId",
          "type": "bytes32",
          "internalType": "bytes32"
        }
      ],
      "outputs": [],
      "stateMutability": "nonpayable"
    },
    {
      "type": "function",
      "name": "registerNewToken",
      "inputs": [
        {
          "name": "_assetId",
          "type": "bytes32",
          "internalType": "bytes32"
        }
      ],
      "outputs": [],
      "stateMutability": "nonpayable"
    },
    {
      "type": "function",
      "name": "renounceOwnership",
      "inputs": [],
      "outputs": [],
      "stateMutability": "nonpayable"
    },
    {
      "type": "function",
      "name": "transferOwnership",
      "inputs": [
        {
          "name": "newOwner",
          "type": "address",
          "internalType": "address"
        }
      ],
      "outputs": [],
      "stateMutability": "nonpayable"
    },
    {
      "type": "event",
      "name": "Initialized",
      "inputs": [
        {
          "name": "version",
          "type": "uint8",
          "indexed": false,
          "internalType": "uint8"
        }
      ],
      "anonymous": false
    },
    {
      "type": "event",
      "name": "OwnershipTransferStarted",
      "inputs": [
        {
          "name": "previousOwner",
          "type": "address",
          "indexed": true,
          "internalType": "address"
        },
        {
          "name": "newOwner",
          "type": "address",
          "indexed": true,
          "internalType": "address"
        }
      ],
      "anonymous": false
    },
    {
      "type": "event",
      "name": "OwnershipTransferred",
      "inputs": [
        {
          "name": "previousOwner",
          "type": "address",
          "indexed": true,
          "internalType": "address"
        },
        {
          "name": "newOwner",
          "type": "address",
          "indexed": true,
          "internalType": "address"
        }
      ],
      "anonymous": false
    },
    {
      "type": "error",
      "name": "ChainIdNotRegistered",
      "inputs": [
        {
          "name": "chainId",
          "type": "uint256",
          "internalType": "uint256"
        }
      ]
    },
    {
      "type": "error",
      "name": "InsufficientChainBalanceAssetTracker",
      "inputs": [
        {
          "name": "chainId",
          "type": "uint256",
          "internalType": "uint256"
        },
        {
          "name": "assetId",
          "type": "bytes32",
          "internalType": "bytes32"
        },
        {
          "name": "amount",
          "type": "uint256",
          "internalType": "uint256"
        }
      ]
    },
    {
      "type": "error",
      "name": "InvalidAmount",
      "inputs": []
    },
    {
      "type": "error",
      "name": "InvalidAssetId",
      "inputs": []
    },
    {
      "type": "error",
      "name": "InvalidChainId",
      "inputs": []
    },
    {
      "type": "error",
      "name": "InvalidInteropCalldata",
      "inputs": [
        {
          "name": "",
          "type": "bytes4",
          "internalType": "bytes4"
        }
      ]
    },
    {
      "type": "error",
      "name": "InvalidMessage",
      "inputs": []
    },
    {
      "type": "error",
      "name": "InvalidProof",
      "inputs": []
    },
    {
      "type": "error",
      "name": "InvalidSender",
      "inputs": []
    },
    {
      "type": "error",
      "name": "NotMigratedChain",
      "inputs": []
    },
    {
      "type": "error",
      "name": "ReconstructionMismatch",
      "inputs": [
        {
          "name": "",
          "type": "bytes32",
          "internalType": "bytes32"
        },
        {
          "name": "",
          "type": "bytes32",
          "internalType": "bytes32"
        }
      ]
    },
    {
      "type": "error",
      "name": "Unauthorized",
      "inputs": [
        {
          "name": "caller",
          "type": "address",
          "internalType": "address"
        }
      ]
    },
    {
      "type": "error",
      "name": "UnsupportedEncodingVersion",
      "inputs": []
    }
  ],
  "bytecode": {
    "object": "0x610120604052348015610010575f5ffd5b50604051613c42380380613c4283398101604081905261002f9161006d565b6080949094526001600160a01b0392831660a052821660c052501660e0526100c7565b80516001600160a01b0381168114610068575f5ffd5b919050565b5f5f5f5f5f60a08688031215610081575f5ffd5b8551945061009160208701610052565b935061009f60408701610052565b92506100ad60608701610052565b91506100bb60808701610052565b90509295509295909350565b60805160a05160c05160e05161010051613af861014a5f395f81816105010152818161075f015261084f01525f8181610224015261268b01525f61038501525f81816103ac015281816109af01528181610e1601528181610efb015281816111ce015281816120a1015261279a01525f81816102830152611ced0152613af85ff3fe608060405234801561000f575f5ffd5b50600436106101c6575f3560e01c8063634a71a3116100fe578063a1b39a8f1161009e578063e8eedb621161006e578063e8eedb62146104b4578063f2fde38b146104d6578063f711f28a146104e9578063fa572723146104fc575f5ffd5b8063a1b39a8f14610451578063e2d840a414610464578063e30c397814610483578063e7ca8589146104a1575f5ffd5b806379ba5097116100d957806379ba509714610418578063807ac6cf146104205780638129fc1c146101dd5780638da5cb5b14610433575f5ffd5b8063634a71a3146103ce57806365ed9912146103ed578063715018a614610410575f5ffd5b80633345359b116101695780634f312ecf116101445780634f312ecf1461032357806351f89b16146103605780635aa6fa1f146103805780635d4edca7146103a7575f5ffd5b80633345359b146102c657806342410ced146102f05780634b62847314610303575f5ffd5b806326ce0686116101a457806326ce06861461021f5780632ebb33de1461026b5780632f90b1841461027e578063307bf32c146102b3575f5ffd5b8063043d0488146101ca57806304b50aae146101df5780630f1360aa146101f2575b5f5ffd5b6101dd6101d83660046128a2565b610523565b005b6101dd6101ed3660046128c2565b610747565b6102056102003660046128f1565b6107fd565b604080519283526020830191909152015b60405180910390f35b6102467f000000000000000000000000000000000000000000000000000000000000000081565b60405173ffffffffffffffffffffffffffffffffffffffff9091168152602001610216565b6101dd610279366004612915565b610837565b6102a57f000000000000000000000000000000000000000000000000000000000000000081565b604051908152602001610216565b6101dd6102c1366004612915565b61097e565b6102a56102d43660046128a2565b609760209081525f928352604080842090915290825290205481565b6101dd6102fe3660046128f1565b610abc565b6101dd6103113660046128f1565b5f908152609960205260409020469055565b6103506103313660046128a2565b609860209081525f928352604080842090915290825290205460ff1681565b6040519015158152602001610216565b61037361036e366004612953565b610bef565b6040516102169190612a0d565b6102467f000000000000000000000000000000000000000000000000000000000000000081565b6102467f000000000000000000000000000000000000000000000000000000000000000081565b6102a56103dc3660046128f1565b609a6020525f908152604090205481565b6104006103fb366004612953565b610c4c565b6040516102169493929190612b99565b6101dd610c6c565b6101dd610c7f565b6101dd61042e366004612be2565b610d34565b60335473ffffffffffffffffffffffffffffffffffffffff16610246565b6101dd61045f366004612c19565b61119d565b6102a56104723660046128f1565b60996020525f908152604090205481565b60655473ffffffffffffffffffffffffffffffffffffffff16610246565b6101dd6104af366004612c62565b611396565b6104c76104c2366004612953565b611c0d565b60405161021693929190612c99565b6101dd6104e4366004612cf1565b611c39565b6101dd6104f73660046128f1565b611ce9565b6102467f000000000000000000000000000000000000000000000000000000000000000081565b5f610532620100006002612d39565b73ffffffffffffffffffffffffffffffffffffffff1663e680c4c1846040518263ffffffff1660e01b815260040161056c91815260200190565b602060405180830381865afa158015610587573d5f5f3e3d5ffd5b505050506040513d601f19601f820116820180604052508101906105ab9190612d70565b90508273ffffffffffffffffffffffffffffffffffffffff8216610607576040517f23f3c3570000000000000000000000000000000000000000000000000000000081526004016105fe91815260200190565b60405180910390fd5b505f610617620100006002612d39565b73ffffffffffffffffffffffffffffffffffffffff1663671a7131856040518263ffffffff1660e01b815260040161065191815260200190565b602060405180830381865afa15801561066c573d5f5f3e3d5ffd5b505050506040513d601f19601f820116820180604052508101906106909190612d8b565b90504681036106cb576040517f8dfed13a00000000000000000000000000000000000000000000000000000000815260040160405180910390fd5b5f838152609960205260409020544614610711576040517ffafca5a000000000000000000000000000000000000000000000000000000000815260040160405180910390fd5b5f848152609760209081526040808320868452909152902054610741908590859061073b83611d6f565b5f611d80565b50505050565b3373ffffffffffffffffffffffffffffffffffffffff7f0000000000000000000000000000000000000000000000000000000000000000731111000000000000000000000000000000001111011681146107e6576040517f8e4a23d600000000000000000000000000000000000000000000000000000000815273ffffffffffffffffffffffffffffffffffffffff90911660048201526024016105fe565b505f928352609a6020526040909220919091555050565b805c5f61081261080e846001612da2565b5c90565b905061081e835f611e4b565b61083261082c846001612da2565b5f611e4b565b915091565b3373ffffffffffffffffffffffffffffffffffffffff7f0000000000000000000000000000000000000000000000000000000000000000731111000000000000000000000000000000001111011681146108d6576040517f8e4a23d600000000000000000000000000000000000000000000000000000000815273ffffffffffffffffffffffffffffffffffffffff90911660048201526024016105fe565b508015610910575f84815260976020908152604080832086845290915281208054849290610905908490612da2565b909155506107419050565b5f8481526097602090815260408083208684529091529020548214610961576040517f2c5211c600000000000000000000000000000000000000000000000000000000815260040160405180910390fd5b50505f918252609760209081526040808420928452919052812055565b6040517f671a7131000000000000000000000000000000000000000000000000000000008152600481018590525f907f000000000000000000000000000000000000000000000000000000000000000073ffffffffffffffffffffffffffffffffffffffff169063671a713190602401602060405180830381865afa158015610a09573d5f5f3e3d5ffd5b505050506040513d601f19601f82011682018060405250810190610a2d9190612d8b565b90505f468214610a3d5781610a3f565b855b9050468214610a6657610a528686611e4b565b610a66610a60876001612da2565b85611e4b565b5f81815260986020908152604080832088845290915290205460ff16610ab4575f81815260976020908152604080832088845290915281208054869290610aae908490612da2565b90915550505b505050505050565b5f610acb620100006004612d39565b73ffffffffffffffffffffffffffffffffffffffff166397bb3ce9836040518263ffffffff1660e01b8152600401610b0591815260200190565b602060405180830381865afa158015610b20573d5f5f3e3d5ffd5b505050506040513d601f19601f82011682018060405250810190610b449190612d70565b905073ffffffffffffffffffffffffffffffffffffffff8116610b65575050565b5f8173ffffffffffffffffffffffffffffffffffffffff166318160ddd6040518163ffffffff1660e01b8152600401602060405180830381865afa158015610baf573d5f5f3e3d5ffd5b505050506040513d601f19601f82011682018060405250810190610bd39190612d8b565b90505f610bdf46611d6f565b9050610741468584846001611d80565b610c2b6040805160a0810182525f8082526020808301829052828401829052606080840152835180850190945281845283015290608082015290565b610c388260018186612db5565b810190610c459190612fee565b9392505050565b5f6060806060610c5c8686611e52565b9299919850965090945092505050565b610c74611f40565b610c7d5f611fc1565b565b606554339073ffffffffffffffffffffffffffffffffffffffff168114610d28576040517f08c379a000000000000000000000000000000000000000000000000000000000815260206004820152602960248201527f4f776e61626c6532537465703a2063616c6c6572206973206e6f74207468652060448201527f6e6577206f776e6572000000000000000000000000000000000000000000000060648201526084016105fe565b610d3181611fc1565b50565b610d3d81611ff2565b610d4b62010000600d612d39565b73ffffffffffffffffffffffffffffffffffffffff16610d716080830160608401612cf1565b73ffffffffffffffffffffffffffffffffffffffff1614610dbe576040517fddb5de5e00000000000000000000000000000000000000000000000000000000815260040160405180910390fd5b5f80808080610dd8610dd360a08801886131b7565b61217e565b9450945094509450945080610eca576040517fe9420f8c000000000000000000000000000000000000000000000000000000008152863560048201527f000000000000000000000000000000000000000000000000000000000000000073ffffffffffffffffffffffffffffffffffffffff169063e9420f8c90602401602060405180830381865afa158015610e70573d5f5f3e3d5ffd5b505050506040513d601f19601f82011682018060405250810190610e949190613218565b610eca576040517f7a47c9a200000000000000000000000000000000000000000000000000000000815260040160405180910390fd5b6040517f671a7131000000000000000000000000000000000000000000000000000000008152600481018690525f907f000000000000000000000000000000000000000000000000000000000000000073ffffffffffffffffffffffffffffffffffffffff169063671a713190602401602060405180830381865afa158015610f55573d5f5f3e3d5ffd5b505050506040513d601f19601f82011682018060405250810190610f799190612d8b565b905081156110c057468103610fba576040517f8dfed13a00000000000000000000000000000000000000000000000000000000815260040160405180910390fd5b86358614610ff4576040517f7a47c9a200000000000000000000000000000000000000000000000000000000815260040160405180910390fd5b5f85815260996020526040902054461461103a576040517ffafca5a000000000000000000000000000000000000000000000000000000000815260040160405180910390fd5b5f858152609960209081526040808320849055888352609782528083208884529091528120805486929061106f908490613233565b90915550505f8181526097602090815260408083208884529091528120805486929061109c908490612da2565b909155506110af905081878787866121a2565b6110bb8686868661221b565b611194565b4681146110f9576040517f8dfed13a00000000000000000000000000000000000000000000000000000000815260040160405180910390fd5b5f85815260996020526040902054873514611140576040517ffafca5a000000000000000000000000000000000000000000000000000000000815260040160405180910390fd5b61114d81878787866121a2565b5f8581526099602090815260408083204690558883526097825280832088845290915281208054869290611182908490612da2565b9091555061119490508686868661221b565b50505050505050565b6040517f671a7131000000000000000000000000000000000000000000000000000000008152600481018590525f907f000000000000000000000000000000000000000000000000000000000000000073ffffffffffffffffffffffffffffffffffffffff169063671a713190602401602060405180830381865afa158015611228573d5f5f3e3d5ffd5b505050506040513d601f19601f8201168201806040525081019061124c9190612d8b565b90505f46821461125c578161125e565b855b9050858714801561128857505f81815260986020908152604080832088845290915290205460ff16155b156112d4575f908152609860209081526040808320878452909152902080547fffffffffffffffffffffffffffffffffffffffffffffffffffffffffffffff001660011790555061138f565b5f81815260986020908152604080832088845290915290205460ff16156112fc57505061138f565b5f81815260976020908152604080832088845290915290205484111561135f576040517fddb749340000000000000000000000000000000000000000000000000000000081526004810182905260248101869052604481018590526064016105fe565b5f81815260976020908152604080832088845290915281208054869290611387908490613233565b909155505050505b5050505050565b6040805160a0810182525f8082528251600f808252610200820190945290928392916020808401929082016101e080368337505050815260408051600f808252610200820190925260209283019290919082016101e08036833750505081525f60208201819052604090910152905061142f817f72abee45b59e344af8a6e520241c4744aff26ed411f4c4b00f8af09adada43ba612250565b505f61143b8480613246565b91505f90505b81811015611b61575f6114548680613246565b83818110611464576114646132a9565b905060c0020180360381019061147a91906132e7565b90505f815f015182602001518360400151846060015185608001518660a001516040516020016115489695949392919060f896871b7fff0000000000000000000000000000000000000000000000000000000000000016815294151590951b600185015260f09290921b7fffff00000000000000000000000000000000000000000000000000000000000016600284015260601b7fffffffffffffffffffffffffffffffffffffffff0000000000000000000000001660048301526018820152603881019190915260580190565b604080517fffffffffffffffffffffffffffffffffffffffffffffffffffffffffffffffe08184030181529190528051602090910120905061158a85826122b6565b5061159a90506180006008612d39565b73ffffffffffffffffffffffffffffffffffffffff16826060015173ffffffffffffffffffffffffffffffffffffffff16146115d7575050611b59565b6115e562010000600b612d39565b73ffffffffffffffffffffffffffffffffffffffff165f1b8260800151146116195761161086613367565b95505050611b59565b5f611627602089018961339e565b88818110611637576116376132a9565b905060200281019061164991906131b7565b8080601f0160208091040260200160405190810160405280939291908181526020018383808284375f9201919091525092935061168b92508991506133679050565b965080805190602001208360a00151146116d1576040517f6eca2e4b00000000000000000000000000000000000000000000000000000000815260040160405180910390fd5b80517f01000000000000000000000000000000000000000000000000000000000000009082905f90611705576117056132a9565b01602001517fff00000000000000000000000000000000000000000000000000000000000000161461173957505050611b59565b6040517f51f89b160000000000000000000000000000000000000000000000000000000081525f9030906351f89b1690611777908590600401613402565b5f60405180830381865afa158015611791573d5f5f3e3d5ffd5b505050506040513d5f823e601f3d9081017fffffffffffffffffffffffffffffffffffffffffffffffffffffffffffffffe01682016040526117d69190810190613496565b90505f81606001515f815181106117ef576117ef6132a9565b602090810291909101015160608301515190915060015b81811015611b515783606001518181518110611824576118246132a9565b6020026020010151925062010000600361183e9190612d39565b73ffffffffffffffffffffffffffffffffffffffff16836060015173ffffffffffffffffffffffffffffffffffffffff1603611b495760a08301517f9c884fd100000000000000000000000000000000000000000000000000000000906118a490613652565b7fffffffff000000000000000000000000000000000000000000000000000000001614611930578260a001516118d990613652565b6040517f075aaa800000000000000000000000000000000000000000000000000000000081527fffffffff0000000000000000000000000000000000000000000000000000000090911660048201526024016105fe565b60a08301516040517fe8eedb620000000000000000000000000000000000000000000000000000000081525f9182918291309163e8eedb629161197591600401613402565b5f60405180830381865afa15801561198f573d5f5f3e3d5ffd5b505050506040513d5f823e601f3d9081017fffffffffffffffffffffffffffffffffffffffffffffffffffffffffffffffe01682016040526119d491908101906136be565b9250925092505f5f6119e5836124c3565b6040517f65ed991200000000000000000000000000000000000000000000000000000000815291965094505f93503092506365ed99129150611a2b908590600401613402565b5f60405180830381865afa158015611a45573d5f5f3e3d5ffd5b505050506040513d5f823e601f3d9081017fffffffffffffffffffffffffffffffffffffffffffffffffffffffffffffffe0168201604052611a8a919081019061370b565b5050505f818152609860209081526040808320898452909152902080547fffffffffffffffffffffffffffffffffffffffffffffffffffffffffffffff001660011790559050858114611b05575f86815260976020908152604080832088845290915281208054859290611aff908490613233565b90915550505b89602001518114611b42576020808b01515f9081526097825260408082208883529092529081208054859290611b3c908490612da2565b90915550505b5050505050505b600101611806565b505050505050505b600101611441565b50611b6b826124ef565b5f611b7583612618565b90505f818660a00135604051602001611b98929190918252602082015260400190565b60405160208183030381529060405280519060200120905085608001358114611bfa576040517f0a6c1a5c00000000000000000000000000000000000000000000000000000000815260048101829052608087013560248201526044016105fe565b610ab4866040013587606001358361264e565b5f806060611c1e8460048188612db5565b810190611c2b91906137a4565b919790965090945092505050565b611c41611f40565b6065805473ffffffffffffffffffffffffffffffffffffffff83167fffffffffffffffffffffffff00000000000000000000000000000000000000009091168117909155611ca460335473ffffffffffffffffffffffffffffffffffffffff1690565b73ffffffffffffffffffffffffffffffffffffffff167f38d16b8cac22d99fc7c124b9cd0de2d3fa1faef420bfe791d8c362d765e2270060405160405180910390a350565b33467f000000000000000000000000000000000000000000000000000000000000000014611d5c576040517f8e4a23d600000000000000000000000000000000000000000000000000000000815273ffffffffffffffffffffffffffffffffffffffff90911660048201526024016105fe565b505f908152609960205260409020469055565b5f611d7a8280613233565b92915050565b611d8d6180006008612d39565b73ffffffffffffffffffffffffffffffffffffffff166362f84b24611def87878787876040805160208101969096528581019490945260608501929092526080840152151560a0808401919091528151808403909101815260c0909201905290565b6040518263ffffffff1660e01b8152600401611e0b9190613402565b6020604051808303815f875af1158015611e27573d5f5f3e3d5ffd5b505050506040513d601f19601f82011682018060405250810190610ab49190612d8b565b80825d5050565b5f60608060605f86865f818110611e6b57611e6b6132a9565b909101357fff00000000000000000000000000000000000000000000000000000000000000169150819050611eb257611ea6868801886137e6565b91955093509150611f35565b7fff0000000000000000000000000000000000000000000000000000000000000081811601611f0357611ee8866001818a612db5565b810190611ef5919061385e565b945094509450945050611f37565b6040517f084a144900000000000000000000000000000000000000000000000000000000815260040160405180910390fd5b505b92959194509250565b60335473ffffffffffffffffffffffffffffffffffffffff163314610c7d576040517f08c379a000000000000000000000000000000000000000000000000000000000815260206004820181905260248201527f4f776e61626c653a2063616c6c6572206973206e6f7420746865206f776e657260448201526064016105fe565b606580547fffffffffffffffffffffffff0000000000000000000000000000000000000000169055610d31816126f3565b5f604051806060016040528083608001602081019061201191906138ea565b61ffff16815260200161202862010000600d612d39565b73ffffffffffffffffffffffffffffffffffffffff16815260200161205060a08501856131b7565b8080601f0160208091040260200160405190810160405280939291908181526020018383808284375f920182905250939094525092935091505073ffffffffffffffffffffffffffffffffffffffff7f0000000000000000000000000000000000000000000000000000000000000000166399c16d1a843560208601356040870135866120e060c08a018a61339e565b6040518763ffffffff1660e01b815260040161210196959493929190613903565b602060405180830381865afa15801561211c573d5f5f3e3d5ffd5b505050506040513d601f19601f820116820180604052508101906121409190613218565b905080612179576040517f09bde33900000000000000000000000000000000000000000000000000000000815260040160405180910390fd5b505050565b5f8080808061218f86880188612c19565b939b929a50909850965090945092505050565b604051602481018590526044810184905260648101839052811515608482015261138f9086903090632ebb33de9060a4015b604051602081830303815290604052915060e01b6020820180517bffffffffffffffffffffffffffffffffffffffffffffffffffffffff8381831617835250505050612769565b6040516024810185905260448101849052606481018390526084810182905261074190859030906304b50aae9060a4016121d4565b5f80835260408301518051839190839061226c5761226c6132a9565b60200260200101818152505060018360800181815250505f5f1b83602001515f8151811061229c5761229c6132a9565b602090810291909101015250600160608301525f92915050565b5f5f5f600185608001516122ca9190613233565b8551909150856122d982613367565b905292506001811b830361239f575f856040015182815181106122fe576122fe6132a9565b602002602001015190505f61231c82835f9182526020526040902090565b9050808760400151886080015181518110612339576123396132a9565b60200260200101818152505086608001805161235490613367565b90526020870151606088015181515f9291908110612374576123746132a9565b60200260200101818152505086606001805161238f90613367565b905261239a83613367565b925050505b82845f805b848163ffffffff161015612493575f6123be6002866139b3565b1590508080156123cc575082155b156123ff57838a602001518363ffffffff16815181106123ee576123ee6132a9565b602002602001018181525050600192505b61247881612430578a602001518363ffffffff1681518110612423576124236132a9565b6020026020010151612432565b845b8261244657855f9182526020526040902090565b8b604001518463ffffffff1681518110612462576124626132a9565b60200260200101515f9182526020526040902090565b9350600185901c9450508061248c906139eb565b90506123a4565b5081886020015185815181106124ab576124ab6132a9565b602090810291909101015250925050505b9250929050565b5f5f5f5f6060858060200190518101906124dd9190613a0f565b939a9299509097509550909350915050565b5f8160400151600183608001516125069190613233565b81518110612516576125166132a9565b60200260200101519050815f01515f0361254e578082602001515f81518110612541576125416132a9565b6020026020010181815250505b5f8260200151600184606001516125659190613233565b81518110612575576125756132a9565b602002602001015190505f83602001515190505f846060015190505b818110156125fb575f928352602084905260408084208585529320935083856040015182815181106125c5576125c56132a9565b60200260200101818152505082856020015182815181106125e8576125e86132a9565b6020908102919091010152600101612591565b505050602082015151606083015250604081015151608090910152565b5f81602001516001836060015161262f9190613233565b8151811061263f5761263f6132a9565b60200260200101519050919050565b6040517ffb644fc50000000000000000000000000000000000000000000000000000000081526004810184905260248101839052604481018290527f000000000000000000000000000000000000000000000000000000000000000073ffffffffffffffffffffffffffffffffffffffff169063fb644fc5906064015f604051808303815f87803b1580156126e1575f5ffd5b505af1158015611194573d5f5f3e3d5ffd5b6033805473ffffffffffffffffffffffffffffffffffffffff8381167fffffffffffffffffffffffff0000000000000000000000000000000000000000831681179093556040519116919082907f8be0079c531659141344cd1fd0a4f28419497f9722a3daafe3b4186f6b6457e0905f90a35050565b6040517fe680c4c1000000000000000000000000000000000000000000000000000000008152600481018390525f907f000000000000000000000000000000000000000000000000000000000000000073ffffffffffffffffffffffffffffffffffffffff169063e680c4c190602401602060405180830381865afa1580156127f4573d5f5f3e3d5ffd5b505050506040513d601f19601f820116820180604052508101906128189190612d70565b905073ffffffffffffffffffffffffffffffffffffffff811663d07b90d161284462010000600d612d39565b846040518363ffffffff1660e01b8152600401612862929190613a8c565b6020604051808303815f875af115801561287e573d5f5f3e3d5ffd5b505050506040513d601f19601f820116820180604052508101906107419190612d8b565b5f5f604083850312156128b3575f5ffd5b50508035926020909101359150565b5f5f5f5f608085870312156128d5575f5ffd5b5050823594602084013594506040840135936060013592509050565b5f60208284031215612901575f5ffd5b5035919050565b8015158114610d31575f5ffd5b5f5f5f5f60808587031215612928575f5ffd5b843593506020850135925060408501359150606085013561294881612908565b939692955090935050565b5f5f60208385031215612964575f5ffd5b823567ffffffffffffffff81111561297a575f5ffd5b8301601f8101851361298a575f5ffd5b803567ffffffffffffffff8111156129a0575f5ffd5b8560208284010111156129b1575f5ffd5b6020919091019590945092505050565b5f81518084528060208401602086015e5f6020828601015260207fffffffffffffffffffffffffffffffffffffffffffffffffffffffffffffffe0601f83011685010191505092915050565b602081525f60e082017fff0000000000000000000000000000000000000000000000000000000000000084511660208401526020840151604084015260408401516060840152606084015160c06080850152818151808452610100860191506101008160051b87010193506020830192505f5b81811015612b5e577fffffffffffffffffffffffffffffffffffffffffffffffffffffffffffffff0087860301835283517fff00000000000000000000000000000000000000000000000000000000000000815116865260208101511515602087015273ffffffffffffffffffffffffffffffffffffffff604082015116604087015273ffffffffffffffffffffffffffffffffffffffff60608201511660608701526080810151608087015260a0810151905060c060a0870152612b4860c08701826129c1565b9550506020938401939290920191600101612a80565b505050506080840151805173ffffffffffffffffffffffffffffffffffffffff90811660a086015260208201511660c0850152509392505050565b848152608060208201525f612bb160808301866129c1565b8281036040840152612bc381866129c1565b90508281036060840152612bd781856129c1565b979650505050505050565b5f60208284031215612bf2575f5ffd5b813567ffffffffffffffff811115612c08575f5ffd5b820160e08185031215610c45575f5ffd5b5f5f5f5f5f60a08688031215612c2d575f5ffd5b853594506020860135935060408601359250606086013591506080860135612c5481612908565b809150509295509295909350565b5f60208284031215612c72575f5ffd5b813567ffffffffffffffff811115612c88575f5ffd5b820160c08185031215610c45575f5ffd5b838152826020820152606060408201525f612cb760608301846129c1565b95945050505050565b73ffffffffffffffffffffffffffffffffffffffff81168114610d31575f5ffd5b8035612cec81612cc0565b919050565b5f60208284031215612d01575f5ffd5b8135610c4581612cc0565b7f4e487b71000000000000000000000000000000000000000000000000000000005f52601160045260245ffd5b73ffffffffffffffffffffffffffffffffffffffff8181168382160190811115611d7a57611d7a612d0c565b8051612cec81612cc0565b5f60208284031215612d80575f5ffd5b8151610c4581612cc0565b5f60208284031215612d9b575f5ffd5b5051919050565b80820180821115611d7a57611d7a612d0c565b5f5f85851115612dc3575f5ffd5b83861115612dcf575f5ffd5b5050820193919092039150565b7f4e487b71000000000000000000000000000000000000000000000000000000005f52604160045260245ffd5b6040805190810167ffffffffffffffff81118282101715612e2c57612e2c612ddc565b60405290565b60405160a0810167ffffffffffffffff81118282101715612e2c57612e2c612ddc565b60405160c0810167ffffffffffffffff81118282101715612e2c57612e2c612ddc565b604051601f82017fffffffffffffffffffffffffffffffffffffffffffffffffffffffffffffffe016810167ffffffffffffffff81118282101715612ebf57612ebf612ddc565b604052919050565b7fff0000000000000000000000000000000000000000000000000000000000000081168114610d31575f5ffd5b5f67ffffffffffffffff821115612f0d57612f0d612ddc565b5060051b60200190565b5f67ffffffffffffffff821115612f3057612f30612ddc565b50601f017fffffffffffffffffffffffffffffffffffffffffffffffffffffffffffffffe01660200190565b5f82601f830112612f6b575f5ffd5b8135612f7e612f7982612f17565b612e78565b818152846020838601011115612f92575f5ffd5b816020850160208301375f918101602001919091529392505050565b5f60408284031215612fbe575f5ffd5b612fc6612e09565b90508135612fd381612cc0565b81526020820135612fe381612cc0565b602082015292915050565b5f60208284031215612ffe575f5ffd5b813567ffffffffffffffff811115613014575f5ffd5b820160c08185031215613025575f5ffd5b61302d612e32565b813561303881612ec7565b81526020828101359082015260408083013590820152606082013567ffffffffffffffff811115613067575f5ffd5b8201601f81018613613077575f5ffd5b8035613085612f7982612ef4565b8082825260208201915060208360051b8501019250888311156130a6575f5ffd5b602084015b8381101561319257803567ffffffffffffffff8111156130c9575f5ffd5b850160c0818c037fffffffffffffffffffffffffffffffffffffffffffffffffffffffffffffffe00112156130fc575f5ffd5b613104612e55565b602082013561311281612ec7565b8152604082013561312281612908565b6020820152606082013561313581612cc0565b604082015261314660808301612ce1565b606082015260a0820135608082015260c082013567ffffffffffffffff81111561316e575f5ffd5b61317d8d602083860101612f5c565b60a083015250845250602092830192016130ab565b50806060860152505050506131aa8560808401612fae565b6080820152949350505050565b5f5f83357fffffffffffffffffffffffffffffffffffffffffffffffffffffffffffffffe18436030181126131ea575f5ffd5b83018035915067ffffffffffffffff821115613204575f5ffd5b6020019150368190038213156124bc575f5ffd5b5f60208284031215613228575f5ffd5b8151610c4581612908565b81810381811115611d7a57611d7a612d0c565b5f5f83357fffffffffffffffffffffffffffffffffffffffffffffffffffffffffffffffe1843603018112613279575f5ffd5b83018035915067ffffffffffffffff821115613293575f5ffd5b602001915060c0810236038213156124bc575f5ffd5b7f4e487b71000000000000000000000000000000000000000000000000000000005f52603260045260245ffd5b803561ffff81168114612cec575f5ffd5b5f60c08284031280156132f8575f5ffd5b50613301612e55565b823560ff81168114613311575f5ffd5b8152602083013561332181612908565b6020820152613332604084016132d6565b6040820152606083013561334581612cc0565b60608201526080838101359082015260a0928301359281019290925250919050565b5f7fffffffffffffffffffffffffffffffffffffffffffffffffffffffffffffffff820361339757613397612d0c565b5060010190565b5f5f83357fffffffffffffffffffffffffffffffffffffffffffffffffffffffffffffffe18436030181126133d1575f5ffd5b83018035915067ffffffffffffffff8211156133eb575f5ffd5b6020019150600581901b36038213156124bc575f5ffd5b602081525f610c4560208301846129c1565b5f82601f830112613423575f5ffd5b8151613431612f7982612f17565b818152846020838601011115613445575f5ffd5b8160208501602083015e5f918101602001919091529392505050565b5f60408284031215613471575f5ffd5b613479612e09565b9050815161348681612cc0565b81526020820151612fe381612cc0565b5f602082840312156134a6575f5ffd5b815167ffffffffffffffff8111156134bc575f5ffd5b820160c081850312156134cd575f5ffd5b6134d5612e32565b81516134e081612ec7565b81526020828101519082015260408083015190820152606082015167ffffffffffffffff81111561350f575f5ffd5b8201601f8101861361351f575f5ffd5b805161352d612f7982612ef4565b8082825260208201915060208360051b85010192508883111561354e575f5ffd5b602084015b8381101561363a57805167ffffffffffffffff811115613571575f5ffd5b850160c0818c037fffffffffffffffffffffffffffffffffffffffffffffffffffffffffffffffe00112156135a4575f5ffd5b6135ac612e55565b60208201516135ba81612ec7565b815260408201516135ca81612908565b602082015260608201516135dd81612cc0565b60408201526135ee60808301612d65565b606082015260a0820151608082015260c082015167ffffffffffffffff811115613616575f5ffd5b6136258d602083860101613414565b60a08301525084525060209283019201613553565b50806060860152505050506131aa8560808401613461565b805160208201517fffffffff000000000000000000000000000000000000000000000000000000008116919060048210156136b7577fffffffff00000000000000000000000000000000000000000000000000000000808360040360031b1b82161692505b5050919050565b5f5f5f606084860312156136d0575f5ffd5b835160208501516040860151919450925067ffffffffffffffff8111156136f5575f5ffd5b61370186828701613414565b9150509250925092565b5f5f5f5f6080858703121561371e575f5ffd5b8451602086015190945067ffffffffffffffff81111561373c575f5ffd5b61374887828801613414565b935050604085015167ffffffffffffffff811115613764575f5ffd5b61377087828801613414565b925050606085015167ffffffffffffffff81111561378c575f5ffd5b61379887828801613414565b91505092959194509250565b5f5f5f606084860312156137b6575f5ffd5b8335925060208401359150604084013567ffffffffffffffff8111156137da575f5ffd5b61370186828701612f5c565b5f5f5f606084860312156137f8575f5ffd5b833567ffffffffffffffff81111561380e575f5ffd5b61381a86828701612f5c565b935050602084013567ffffffffffffffff811115613836575f5ffd5b61384286828701612f5c565b925050604084013567ffffffffffffffff8111156137da575f5ffd5b5f5f5f5f60808587031215613871575f5ffd5b84359350602085013567ffffffffffffffff81111561388e575f5ffd5b61389a87828801612f5c565b935050604085013567ffffffffffffffff8111156138b6575f5ffd5b6138c287828801612f5c565b925050606085013567ffffffffffffffff8111156138de575f5ffd5b61379887828801612f5c565b5f602082840312156138fa575f5ffd5b610c45826132d6565b86815285602082015284604082015260a0606082015261ffff84511660a082015273ffffffffffffffffffffffffffffffffffffffff60208501511660c08201525f6040850151606060e084015261395f6101008401826129c1565b905082810360808401528381527f07ffffffffffffffffffffffffffffffffffffffffffffffffffffffffffffff841115613998575f5ffd5b8360051b808660208401370160200198975050505050505050565b5f826139e6577f4e487b71000000000000000000000000000000000000000000000000000000005f52601260045260245ffd5b500690565b5f63ffffffff821663ffffffff8103613a0657613a06612d0c565b60010192915050565b5f5f5f5f5f60a08688031215613a23575f5ffd5b8551613a2e81612cc0565b6020870151909550613a3f81612cc0565b6040870151909450613a5081612cc0565b60608701516080880151919450925067ffffffffffffffff811115613a73575f5ffd5b613a7f88828901613414565b9150509295509295909350565b73ffffffffffffffffffffffffffffffffffffffff83168152604060208201525f613aba60408301846129c1565b94935050505056fea2646970667358221220ae9c33b1ffec6d8df9fe99cc5181ab2563886df2866d201912e653a89747492864736f6c634300081c0033",
    "linkReferences": {}
  },
  "methodIdentifiers": {
    "BRIDGE_HUB()": "5d4edca7",
    "L1_ASSET_TRACKER()": "fa572723",
    "L1_CHAIN_ID()": "2f90b184",
    "MESSAGE_ROOT()": "26ce0686",
    "NATIVE_TOKEN_VAULT()": "5aa6fa1f",
    "acceptOwnership()": "79ba5097",
    "assetMigrationNumber(bytes32)": "634a71a3",
    "assetSettlementLayer(bytes32)": "e2d840a4",
    "chainBalance(uint256,bytes32)": "3345359b",
    "confirmMigrationOnGateway(uint256,bytes32,uint256,bool)": "2ebb33de",
    "confirmMigrationOnL2(uint256,bytes32,uint256,uint256)": "04b50aae",
    "getBalanceChange(uint256)": "0f1360aa",
    "handleChainBalanceDecrease(uint256,uint256,bytes32,uint256,bool)": "a1b39a8f",
    "handleChainBalanceIncrease(uint256,bytes32,uint256,bool)": "307bf32c",
    "initialize()": "8129fc1c",
    "initiateGatewayToL1MigrationOnGateway(uint256,bytes32)": "043d0488",
    "initiateL1ToGatewayMigrationOnL2(bytes32)": "42410ced",
    "isMinterChain(uint256,bytes32)": "4f312ecf",
    "owner()": "8da5cb5b",
    "parseInteropBundle(bytes)": "51f89b16",
    "parseInteropCall(bytes)": "e8eedb62",
    "parseTokenData(bytes)": "65ed9912",
    "pendingOwner()": "e30c3978",
    "processLogsAndMessages(((uint8,bool,uint16,address,bytes32,bytes32)[],bytes[],uint256,uint256,bytes32,bytes32))": "e7ca8589",
    "receiveMigrationOnL1((uint256,uint256,uint256,address,uint16,bytes,bytes32[]))": "807ac6cf",
    "registerLegacyToken(bytes32)": "f711f28a",
    "registerNewToken(bytes32)": "4b628473",
    "renounceOwnership()": "715018a6",
    "transferOwnership(address)": "f2fde38b"
  },
  "id": 15
}