{
  "abi": [
    {
      "type": "constructor",
      "inputs": [
        {
          "name": "_bridgehub",
          "type": "address",
          "internalType": "contract IBridgehub"
        },
        {
          "name": "_l1ChainId",
          "type": "uint256",
          "internalType": "uint256"
        },
        {
          "name": "_owner",
          "type": "address",
          "internalType": "address"
        }
      ],
      "stateMutability": "nonpayable"
    },
    {
      "type": "function",
      "name": "BRIDGE_HUB",
      "inputs": [],
      "outputs": [
        {
          "name": "",
          "type": "address",
          "internalType": "contract IBridgehub"
        }
      ],
      "stateMutability": "view"
    },
    {
      "type": "function",
      "name": "L1_CHAIN_ID",
      "inputs": [],
      "outputs": [
        {
          "name": "",
          "type": "uint256",
          "internalType": "uint256"
        }
      ],
      "stateMutability": "view"
    },
    {
      "type": "function",
      "name": "acceptOwnership",
      "inputs": [],
      "outputs": [],
      "stateMutability": "nonpayable"
    },
    {
      "type": "function",
      "name": "assetRouter",
      "inputs": [],
      "outputs": [
        {
          "name": "",
          "type": "address",
          "internalType": "address"
        }
      ],
      "stateMutability": "view"
    },
    {
      "type": "function",
      "name": "assetTracker",
      "inputs": [],
      "outputs": [
        {
          "name": "",
          "type": "address",
          "internalType": "contract IL2AssetTracker"
        }
      ],
      "stateMutability": "view"
    },
    {
      "type": "function",
      "name": "forwardTransactionOnGatewayWithBalanceChange",
      "inputs": [
        {
          "name": "_chainId",
          "type": "uint256",
          "internalType": "uint256"
        },
        {
          "name": "_canonicalTxHash",
          "type": "bytes32",
          "internalType": "bytes32"
        },
        {
          "name": "_expirationTimestamp",
          "type": "uint64",
          "internalType": "uint64"
        },
        {
          "name": "_balanceChange",
          "type": "tuple",
          "internalType": "struct BalanceChange",
          "components": [
            {
              "name": "baseTokenAssetId",
              "type": "bytes32",
              "internalType": "bytes32"
            },
            {
              "name": "baseTokenAmount",
              "type": "uint256",
              "internalType": "uint256"
            },
            {
              "name": "assetId",
              "type": "bytes32",
              "internalType": "bytes32"
            },
            {
              "name": "amount",
              "type": "uint256",
              "internalType": "uint256"
            },
            {
              "name": "tokenOriginChainId",
              "type": "uint256",
              "internalType": "uint256"
            }
          ]
        }
      ],
      "outputs": [],
      "stateMutability": "nonpayable"
    },
    {
      "type": "function",
      "name": "initialize",
      "inputs": [
        {
          "name": "_owner",
          "type": "address",
          "internalType": "address"
        }
      ],
      "outputs": [],
      "stateMutability": "nonpayable"
    },
    {
      "type": "function",
      "name": "interopBundleNonce",
      "inputs": [
        {
          "name": "sender",
          "type": "address",
          "internalType": "address"
        }
      ],
      "outputs": [
        {
          "name": "numberOfBundlesSent",
          "type": "uint256",
          "internalType": "uint256"
        }
      ],
      "stateMutability": "view"
    },
    {
      "type": "function",
      "name": "owner",
      "inputs": [],
      "outputs": [
        {
          "name": "",
          "type": "address",
          "internalType": "address"
        }
      ],
      "stateMutability": "view"
    },
    {
      "type": "function",
      "name": "parseAttributes",
      "inputs": [
        {
          "name": "_attributes",
          "type": "bytes[]",
          "internalType": "bytes[]"
        },
        {
          "name": "_restriction",
          "type": "uint8",
          "internalType": "enum IInteropCenter.AttributeParsingRestrictions"
        }
      ],
      "outputs": [
        {
          "name": "callAttributes",
          "type": "tuple",
          "internalType": "struct CallAttributes",
          "components": [
            {
              "name": "interopCallValue",
              "type": "uint256",
              "internalType": "uint256"
            },
            {
              "name": "indirectCall",
              "type": "bool",
              "internalType": "bool"
            },
            {
              "name": "indirectCallMessageValue",
              "type": "uint256",
              "internalType": "uint256"
            }
          ]
        },
        {
          "name": "bundleAttributes",
          "type": "tuple",
          "internalType": "struct BundleAttributes",
          "components": [
            {
              "name": "executionAddress",
              "type": "bytes",
              "internalType": "bytes"
            },
            {
              "name": "unbundlerAddress",
              "type": "bytes",
              "internalType": "bytes"
            }
          ]
        }
      ],
      "stateMutability": "pure"
    },
    {
      "type": "function",
      "name": "pause",
      "inputs": [],
      "outputs": [],
      "stateMutability": "nonpayable"
    },
    {
      "type": "function",
      "name": "paused",
      "inputs": [],
      "outputs": [
        {
          "name": "",
          "type": "bool",
          "internalType": "bool"
        }
      ],
      "stateMutability": "view"
    },
    {
      "type": "function",
      "name": "pendingOwner",
      "inputs": [],
      "outputs": [
        {
          "name": "",
          "type": "address",
          "internalType": "address"
        }
      ],
      "stateMutability": "view"
    },
    {
      "type": "function",
      "name": "renounceOwnership",
      "inputs": [],
      "outputs": [],
      "stateMutability": "nonpayable"
    },
    {
      "type": "function",
      "name": "sendBundle",
      "inputs": [
        {
          "name": "_destinationChainId",
          "type": "bytes",
          "internalType": "bytes"
        },
        {
          "name": "_callStarters",
          "type": "tuple[]",
          "internalType": "struct InteropCallStarter[]",
          "components": [
            {
              "name": "to",
              "type": "bytes",
              "internalType": "bytes"
            },
            {
              "name": "data",
              "type": "bytes",
              "internalType": "bytes"
            },
            {
              "name": "callAttributes",
              "type": "bytes[]",
              "internalType": "bytes[]"
            }
          ]
        },
        {
          "name": "_bundleAttributes",
          "type": "bytes[]",
          "internalType": "bytes[]"
        }
      ],
      "outputs": [
        {
          "name": "bundleHash",
          "type": "bytes32",
          "internalType": "bytes32"
        }
      ],
      "stateMutability": "payable"
    },
    {
      "type": "function",
      "name": "sendMessage",
      "inputs": [
        {
          "name": "recipient",
          "type": "bytes",
          "internalType": "bytes"
        },
        {
          "name": "payload",
          "type": "bytes",
          "internalType": "bytes"
        },
        {
          "name": "attributes",
          "type": "bytes[]",
          "internalType": "bytes[]"
        }
      ],
      "outputs": [
        {
          "name": "sendId",
          "type": "bytes32",
          "internalType": "bytes32"
        }
      ],
      "stateMutability": "payable"
    },
    {
      "type": "function",
      "name": "setAddresses",
      "inputs": [
        {
          "name": "_assetRouter",
          "type": "address",
          "internalType": "address"
        },
        {
          "name": "_assetTracker",
          "type": "address",
          "internalType": "address"
        }
      ],
      "outputs": [],
      "stateMutability": "nonpayable"
    },
    {
      "type": "function",
      "name": "supportsAttribute",
      "inputs": [
        {
          "name": "_attributeSelector",
          "type": "bytes4",
          "internalType": "bytes4"
        }
      ],
      "outputs": [
        {
          "name": "",
          "type": "bool",
          "internalType": "bool"
        }
      ],
      "stateMutability": "pure"
    },
    {
      "type": "function",
      "name": "transferOwnership",
      "inputs": [
        {
          "name": "newOwner",
          "type": "address",
          "internalType": "address"
        }
      ],
      "outputs": [],
      "stateMutability": "nonpayable"
    },
    {
      "type": "function",
      "name": "unpause",
      "inputs": [],
      "outputs": [],
      "stateMutability": "nonpayable"
    },
    {
      "type": "event",
      "name": "Initialized",
      "inputs": [
        {
          "name": "version",
          "type": "uint8",
          "indexed": false,
          "internalType": "uint8"
        }
      ],
      "anonymous": false
    },
    {
      "type": "event",
      "name": "InteropBundleSent",
      "inputs": [
        {
          "name": "l2l1MsgHash",
          "type": "bytes32",
          "indexed": false,
          "internalType": "bytes32"
        },
        {
          "name": "interopBundleHash",
          "type": "bytes32",
          "indexed": false,
          "internalType": "bytes32"
        },
        {
          "name": "interopBundle",
          "type": "tuple",
          "indexed": false,
          "internalType": "struct InteropBundle",
          "components": [
            {
              "name": "version",
              "type": "bytes1",
              "internalType": "bytes1"
            },
            {
              "name": "destinationChainId",
              "type": "uint256",
              "internalType": "uint256"
            },
            {
              "name": "interopBundleSalt",
              "type": "bytes32",
              "internalType": "bytes32"
            },
            {
              "name": "calls",
              "type": "tuple[]",
              "internalType": "struct InteropCall[]",
              "components": [
                {
                  "name": "version",
                  "type": "bytes1",
                  "internalType": "bytes1"
                },
                {
                  "name": "shadowAccount",
                  "type": "bool",
                  "internalType": "bool"
                },
                {
                  "name": "to",
                  "type": "address",
                  "internalType": "address"
                },
                {
                  "name": "from",
                  "type": "address",
                  "internalType": "address"
                },
                {
                  "name": "value",
                  "type": "uint256",
                  "internalType": "uint256"
                },
                {
                  "name": "data",
                  "type": "bytes",
                  "internalType": "bytes"
                }
              ]
            },
            {
              "name": "bundleAttributes",
              "type": "tuple",
              "internalType": "struct BundleAttributes",
              "components": [
                {
                  "name": "executionAddress",
                  "type": "bytes",
                  "internalType": "bytes"
                },
                {
                  "name": "unbundlerAddress",
                  "type": "bytes",
                  "internalType": "bytes"
                }
              ]
            }
          ]
        }
      ],
      "anonymous": false
    },
    {
      "type": "event",
      "name": "MessageSent",
      "inputs": [
        {
          "name": "sendId",
          "type": "bytes32",
          "indexed": true,
          "internalType": "bytes32"
        },
        {
          "name": "sender",
          "type": "bytes",
          "indexed": false,
          "internalType": "bytes"
        },
        {
          "name": "recipient",
          "type": "bytes",
          "indexed": false,
          "internalType": "bytes"
        },
        {
          "name": "payload",
          "type": "bytes",
          "indexed": false,
          "internalType": "bytes"
        },
        {
          "name": "value",
          "type": "uint256",
          "indexed": false,
          "internalType": "uint256"
        },
        {
          "name": "attributes",
          "type": "bytes[]",
          "indexed": false,
          "internalType": "bytes[]"
        }
      ],
      "anonymous": false
    },
    {
      "type": "event",
      "name": "NewAssetRouter",
      "inputs": [
        {
          "name": "oldAssetRouter",
          "type": "address",
          "indexed": true,
          "internalType": "address"
        },
        {
          "name": "newAssetRouter",
          "type": "address",
          "indexed": true,
          "internalType": "address"
        }
      ],
      "anonymous": false
    },
    {
      "type": "event",
      "name": "NewAssetTracker",
      "inputs": [
        {
          "name": "oldAssetTracker",
          "type": "address",
          "indexed": true,
          "internalType": "address"
        },
        {
          "name": "newAssetTracker",
          "type": "address",
          "indexed": true,
          "internalType": "address"
        }
      ],
      "anonymous": false
    },
    {
      "type": "event",
      "name": "OwnershipTransferStarted",
      "inputs": [
        {
          "name": "previousOwner",
          "type": "address",
          "indexed": true,
          "internalType": "address"
        },
        {
          "name": "newOwner",
          "type": "address",
          "indexed": true,
          "internalType": "address"
        }
      ],
      "anonymous": false
    },
    {
      "type": "event",
      "name": "OwnershipTransferred",
      "inputs": [
        {
          "name": "previousOwner",
          "type": "address",
          "indexed": true,
          "internalType": "address"
        },
        {
          "name": "newOwner",
          "type": "address",
          "indexed": true,
          "internalType": "address"
        }
      ],
      "anonymous": false
    },
    {
      "type": "event",
      "name": "Paused",
      "inputs": [
        {
          "name": "account",
          "type": "address",
          "indexed": false,
          "internalType": "address"
        }
      ],
      "anonymous": false
    },
    {
      "type": "event",
      "name": "Unpaused",
      "inputs": [
        {
          "name": "account",
          "type": "address",
          "indexed": false,
          "internalType": "address"
        }
      ],
      "anonymous": false
    },
    {
      "type": "error",
      "name": "AttributeAlreadySet",
      "inputs": [
        {
          "name": "selector",
          "type": "bytes4",
          "internalType": "bytes4"
        }
      ]
    },
    {
      "type": "error",
      "name": "AttributeViolatesRestriction",
      "inputs": [
        {
          "name": "selector",
          "type": "bytes4",
          "internalType": "bytes4"
        },
        {
          "name": "restriction",
          "type": "uint256",
          "internalType": "uint256"
        }
      ]
    },
    {
      "type": "error",
      "name": "IndirectCallValueMismatch",
      "inputs": [
        {
          "name": "expected",
          "type": "uint256",
          "internalType": "uint256"
        },
        {
          "name": "actual",
          "type": "uint256",
          "internalType": "uint256"
        }
      ]
    },
    {
      "type": "error",
      "name": "InteroperableAddressChainReferenceNotEmpty",
      "inputs": [
        {
          "name": "interoperableAddress",
          "type": "bytes",
          "internalType": "bytes"
        }
      ]
    },
    {
      "type": "error",
      "name": "InteroperableAddressNotEmpty",
      "inputs": [
        {
          "name": "interoperableAddress",
          "type": "bytes",
          "internalType": "bytes"
        }
      ]
    },
    {
      "type": "error",
      "name": "InteroperableAddressParsingError",
      "inputs": [
        {
          "name": "",
          "type": "bytes",
          "internalType": "bytes"
        }
      ]
    },
    {
      "type": "error",
      "name": "MsgValueMismatch",
      "inputs": [
        {
          "name": "expectedMsgValue",
          "type": "uint256",
          "internalType": "uint256"
        },
        {
          "name": "providedMsgValue",
          "type": "uint256",
          "internalType": "uint256"
        }
      ]
    },
    {
      "type": "error",
      "name": "NotInGatewayMode",
      "inputs": []
    },
    {
      "type": "error",
      "name": "NotL1",
      "inputs": [
        {
          "name": "l1ChainId",
          "type": "uint256",
          "internalType": "uint256"
        },
        {
          "name": "blockChainId",
          "type": "uint256",
          "internalType": "uint256"
        }
      ]
    },
    {
      "type": "error",
      "name": "NotL2ToL2",
      "inputs": [
        {
          "name": "sourceChainId",
          "type": "uint256",
          "internalType": "uint256"
        },
        {
          "name": "destinationChainId",
          "type": "uint256",
          "internalType": "uint256"
        }
      ]
    },
    {
      "type": "error",
      "name": "SlotOccupied",
      "inputs": []
    },
    {
      "type": "error",
      "name": "Unauthorized",
      "inputs": [
        {
          "name": "caller",
          "type": "address",
          "internalType": "address"
        }
      ]
    },
    {
      "type": "error",
      "name": "UnsupportedAttribute",
      "inputs": [
        {
          "name": "selector",
          "type": "bytes4",
          "internalType": "bytes4"
        }
      ]
    }
  ],
  "bytecode": {
    "object": "0x60e060405234801561000f575f5ffd5b5060405161458138038061458183398101604081905261002e91610242565b61003661006f565b61003e6100b9565b6001600160a01b03831660805260a082905261005b826001610175565b60c052610067816101c9565b5050506102ad565b7f8e94fed44239eb2314ab7a406345e6c5a8f0ccedf3b600de3d004e672c33abf48054600190915580156100b65760405163df3a8fdd60e01b815260040160405180910390fd5b50565b5f54610100900460ff16156101245760405162461bcd60e51b815260206004820152602760248201527f496e697469616c697a61626c653a20636f6e747261637420697320696e697469604482015266616c697a696e6760c81b606482015260840160405180910390fd5b5f5460ff90811614610173575f805460ff191660ff9081179091556040519081527f7f26b83ff96e1f2b6a682f133852f6798a09c465da95921460cefb38474024989060200160405180910390a15b565b5f82610185620100006004610282565b6040805160208101939093526001600160a01b0391821690830152831660608201526080016040516020818303038152906040528051906020012090505b92915050565b606580546001600160a01b03191690556100b681603380546001600160a01b038381166001600160a01b0319831681179093556040519116919082907f8be0079c531659141344cd1fd0a4f28419497f9722a3daafe3b4186f6b6457e0905f90a35050565b6001600160a01b03811681146100b6575f5ffd5b5f5f5f60608486031215610254575f5ffd5b835161025f8161022e565b6020850151604086015191945092506102778161022e565b809150509250925092565b6001600160a01b0381811683821601908111156101c357634e487b7160e01b5f52601160045260245ffd5b60805160a05160c05161427561030c5f395f50505f818161018d015281816104a30152818161151e01528181611b8d0152611bb701525f818161020a0152818161052801528181610699015281816128c1015261298701526142755ff3fe608060405260043610610157575f3560e01c80638456cb59116100bb578063c4d66de811610071578063dc680a0f11610057578063dc680a0f146103cb578063e30c3978146103ea578063f2fde38b14610414575f5ffd5b8063c4d66de814610399578063cdfe7f5c146103b8575f5ffd5b806390107afe116100a157806390107afe14610322578063bc0aac1014610341578063bfa47de11461036d575f5ffd5b80638456cb59146102e45780638da5cb5b146102f8575f5ffd5b80635e4217e111610110578063715018a6116100f6578063715018a61461028f57806379ba5097146102a35780637df96ccd146102b7575f5ffd5b80635e4217e1146102515780635ef7e1041461027c575f5ffd5b80633f4ba83a116101405780633f4ba83a146101c25780635c975abb146101d65780635d4edca7146101f9575f5ffd5b80630db33cef1461015b5780632f90b1841461017c575b5f5ffd5b348015610166575f5ffd5b5061017a6101753660046131f3565b610433565b005b348015610187575f5ffd5b506101af7f000000000000000000000000000000000000000000000000000000000000000081565b6040519081526020015b60405180910390f35b3480156101cd575f5ffd5b5061017a6107ad565b3480156101e1575f5ffd5b5060975460ff165b60405190151581526020016101b9565b348015610204575f5ffd5b5061022c7f000000000000000000000000000000000000000000000000000000000000000081565b60405173ffffffffffffffffffffffffffffffffffffffff90911681526020016101b9565b34801561025c575f5ffd5b506101af61026b3660046132c9565b60cb6020525f908152604090205481565b6101af61028a366004613363565b6107bf565b34801561029a575f5ffd5b5061017a610ad6565b3480156102ae575f5ffd5b5061017a610ae7565b3480156102c2575f5ffd5b506102d66102d1366004613402565b610b9c565b6040516101b99291906134da565b3480156102ef575f5ffd5b5061017a611418565b348015610303575f5ffd5b5060335473ffffffffffffffffffffffffffffffffffffffff1661022c565b34801561032d575f5ffd5b5061017a61033c366004613511565b611428565b34801561034c575f5ffd5b5060c95461022c9073ffffffffffffffffffffffffffffffffffffffff1681565b348015610378575f5ffd5b5060ca5461022c9073ffffffffffffffffffffffffffffffffffffffff1681565b3480156103a4575f5ffd5b5061017a6103b33660046132c9565b611514565b6101af6103c6366004613548565b61158b565b3480156103d6575f5ffd5b506101e96103e53660046135aa565b611765565b3480156103f5575f5ffd5b5060655473ffffffffffffffffffffffffffffffffffffffff1661022c565b34801561041f575f5ffd5b5061017a61042e3660046132c9565b6117f5565b33731111111111111111111111111111111111111111811461049f576040517f8e4a23d600000000000000000000000000000000000000000000000000000000815273ffffffffffffffffffffffffffffffffffffffff90911660048201526024015b60405180910390fd5b50467f0000000000000000000000000000000000000000000000000000000000000000036104f9576040517f472477e200000000000000000000000000000000000000000000000000000000815260040160405180910390fd5b6040517fe52db4ca000000000000000000000000000000000000000000000000000000008152600481018590527f000000000000000000000000000000000000000000000000000000000000000073ffffffffffffffffffffffffffffffffffffffff169063e52db4ca90602401602060405180830381865afa158015610582573d5f5f3e3d5ffd5b505050506040513d601f19601f820116820180604052508101906105a691906135e9565b81526105b662010000600d61362d565b604080517f80f2c6cc00000000000000000000000000000000000000000000000000000000815260048101879052602481018690528351604482015260208401516064820152908301516084820152606083015160a4820152608083015160c482015273ffffffffffffffffffffffffffffffffffffffff91909116906380f2c6cc9060e4015f604051808303815f87803b158015610653575f5ffd5b505af1158015610665573d5f5f3e3d5ffd5b50506040517fe680c4c1000000000000000000000000000000000000000000000000000000008152600481018790525f92507f000000000000000000000000000000000000000000000000000000000000000073ffffffffffffffffffffffffffffffffffffffff16915063e680c4c190602401602060405180830381865afa1580156106f4573d5f5f3e3d5ffd5b505050506040513d601f19601f820116820180604052508101906107189190613659565b6040517fddcc9eec0000000000000000000000000000000000000000000000000000000081526004810186905267ffffffffffffffff8516602482015290915073ffffffffffffffffffffffffffffffffffffffff82169063ddcc9eec906044015f604051808303815f87803b158015610790575f5ffd5b505af11580156107a2573d5f5f3e3d5ffd5b505050505050505050565b6107b56118a5565b6107bd611926565b565b5f6107c86119a3565b6107d28787611a10565b5f6107dd8888611b31565b5090506107e981611b8a565b5f8567ffffffffffffffff81111561080357610803613108565b60405190808252806020026020018201604052801561086957816020015b61085660408051606080820183525f808352602080840183905284519283018552818352820181905281840152909182015290565b8152602001906001900390816108215790505b509050855f8167ffffffffffffffff81111561088757610887613108565b6040519080825280602002602001820160405280156108ba57816020015b60608152602001906001900390816108a55790505b5090505f5b82811015610a8d576108fd8a8a838181106108dc576108dc613674565b90506020028101906108ee91906136a1565b6108f890806136dd565b611c22565b5f6109348b8b8481811061091357610913613674565b905060200281019061092591906136a1565b61092f90806136dd565b611b31565b9150508a8a8381811061094957610949613674565b905060200281019061095b91906136a1565b61096990604081019061373e565b6109729161380a565b83838151811061098457610984613674565b60200260200101819052505f6109cc8c8c858181106109a5576109a5613674565b90506020028101906109b791906136a1565b6109c590604081019061373e565b6001610b9c565b50905060405180606001604052808373ffffffffffffffffffffffffffffffffffffffff1681526020018d8d86818110610a0857610a08613674565b9050602002810190610a1a91906136a1565b610a289060208101906136dd565b8080601f0160208091040260200160405190810160405280939291908181526020018383808284375f920191909152505050908252506020018290528651879085908110610a7857610a78613674565b602090810291909101015250506001016108bf565b505f610a9b88886002610b9c565b9150508060200151515f03610aba57610ab44633611cc6565b60208201525b610ac685858385611d28565b9c9b505050505050505050505050565b610ade6118a5565b6107bd5f6121de565b606554339073ffffffffffffffffffffffffffffffffffffffff168114610b90576040517f08c379a000000000000000000000000000000000000000000000000000000000815260206004820152602960248201527f4f776e61626c6532537465703a2063616c6c6572206973206e6f74207468652060448201527f6e6577206f776e657200000000000000000000000000000000000000000000006064820152608401610496565b610b99816121de565b50565b610bbf60405180606001604052805f81526020015f151581526020015f81525090565b60408051808201909152606080825260208201525f60208301819052610be361220f565b60408051600480825260a082019092529192505f919060208201608080368337019050509050855f5b8181101561140c575f898983818110610c2757610c27613674565b9050602002810190610c3991906136dd565b610c42916138bd565b90507fab4e9ad7000000000000000000000000000000000000000000000000000000007fffffffff00000000000000000000000000000000000000000000000000000000821601610e2057835f81518110610c9f57610c9f613674565b6020026020010151158190610d05576040517f9031f7510000000000000000000000000000000000000000000000000000000081527fffffffff000000000000000000000000000000000000000000000000000000009091166004820152602401610496565b505f886003811115610d1957610d19613923565b1480610d3657506001886003811115610d3457610d34613923565b145b80610d5257506003886003811115610d5057610d50613923565b145b81896003811115610d6557610d65613923565b9091610dc7576040517fbcb41ec70000000000000000000000000000000000000000000000000000000081527fffffffff0000000000000000000000000000000000000000000000000000000090921660048301526024820152604401610496565b50506001845f81518110610ddd57610ddd613674565b91151560209283029190910190910152610e198a8a84818110610e0257610e02613674565b9050602002810190610e1491906136dd565b6122bc565b8752611403565b7f37b69159000000000000000000000000000000000000000000000000000000007fffffffff00000000000000000000000000000000000000000000000000000000821601610fd45783600181518110610e7c57610e7c613674565b6020026020010151158190610ee2576040517f9031f7510000000000000000000000000000000000000000000000000000000081527fffffffff000000000000000000000000000000000000000000000000000000009091166004820152602401610496565b506001886003811115610ef757610ef7613923565b1480610f1457506003886003811115610f1257610f12613923565b145b81896003811115610f2757610f27613923565b9091610f89576040517fbcb41ec70000000000000000000000000000000000000000000000000000000081527fffffffff0000000000000000000000000000000000000000000000000000000090921660048301526024820152604401610496565b5050600184600181518110610fa057610fa0613674565b911515602092830291909101820152600190880152610fca8a8a84818110610e0257610e02613674565b6040880152611403565b7ffab3fce5000000000000000000000000000000000000000000000000000000007fffffffff000000000000000000000000000000000000000000000000000000008216016111cb578360028151811061103057611030613674565b6020026020010151158190611096576040517f9031f7510000000000000000000000000000000000000000000000000000000081527fffffffff000000000000000000000000000000000000000000000000000000009091166004820152602401610496565b5060028860038111156110ab576110ab613923565b14806110c8575060038860038111156110c6576110c6613923565b145b818960038111156110db576110db613923565b909161113d576040517fbcb41ec70000000000000000000000000000000000000000000000000000000081527fffffffff0000000000000000000000000000000000000000000000000000000090921660048301526024820152604401610496565b505060018460028151811061115457611154613674565b911515602092830291909101909101526111908a8a8481811061117957611179613674565b905060200281019061118b91906136dd565b6122db565b8080601f0160208091040260200160405190810160405280939291908181526020018383808284375f92019190915250505090875250611403565b7f46379968000000000000000000000000000000000000000000000000000000007fffffffff000000000000000000000000000000000000000000000000000000008216016113ad578360038151811061122757611227613674565b602002602001015115819061128d576040517f9031f7510000000000000000000000000000000000000000000000000000000081527fffffffff000000000000000000000000000000000000000000000000000000009091166004820152602401610496565b5060028860038111156112a2576112a2613923565b14806112bf575060038860038111156112bd576112bd613923565b145b818960038111156112d2576112d2613923565b9091611334576040517fbcb41ec70000000000000000000000000000000000000000000000000000000081527fffffffff0000000000000000000000000000000000000000000000000000000090921660048301526024820152604401610496565b505060018460038151811061134b5761134b613674565b911515602092830291909101909101526113708a8a8481811061117957611179613674565b8080601f0160208091040260200160405190810160405280939291908181526020018383808284375f920191909152505050506020870152611403565b6040517fe1c9e4790000000000000000000000000000000000000000000000000000000081527fffffffff0000000000000000000000000000000000000000000000000000000082166004820152602401610496565b50600101610c0c565b50505050935093915050565b6114206118a5565b6107bd6122f6565b6114306118a5565b60c9805460ca80547fffffffffffffffffffffffff000000000000000000000000000000000000000080841673ffffffffffffffffffffffffffffffffffffffff8881169182179096559082168686161790925560405192841693169183907f1a63409548d2d73de3e36cb4138d7a708351257aa35c008250f3d3fe25bdb479905f90a38273ffffffffffffffffffffffffffffffffffffffff168173ffffffffffffffffffffffffffffffffffffffff167faf37ef53531769f84726b9421039fd50511f7d2672288012370502b6b1f34b3960405160405180910390a350505050565b61151c612351565b7f000000000000000000000000000000000000000000000000000000000000000046818114611580576040517fecb3444900000000000000000000000000000000000000000000000000000000815260048101929092526024820152604401610496565b5050610b99816121de565b5f6115946119a3565b5f5f6115a08989611b31565b915091506115ad82611b8a565b5f5f6115bb87876003610b9c565b915091508060200151515f036115db576115d54633611cc6565b60208201525b6040805160018082528183019092525f91816020015b61162660408051606080820183525f808352602080840183905284519283018552818352820181905281840152909182015290565b8152602001906001900390816115f157905050905060405180606001604052808573ffffffffffffffffffffffffffffffffffffffff1681526020018b8b8080601f0160208091040260200160405190810160405280939291908181526020018383808284375f920182905250938552505050602090910185905282518391906116b2576116b2613674565b60209081029190910101526040805160018082528183019092525f91816020015b60608152602001906001900390816116d35790505090506116f4888a61380a565b815f8151811061170657611706613674565b60200260200101819052505f61171e87848685611d28565b9050805f60405160200161173c929190918252602082015260400190565b604051602081830303815290604052805190602001209750505050505050509695505050505050565b5f5f61176f61220f565b905060045f5b818110156117eb5782816004811061178f5761178f613674565b60200201517bffffffffffffffffffffffffffffffffffffffffffffffffffffffff1916857bffffffffffffffffffffffffffffffffffffffffffffffffffffffff1916036117e357506001949350505050565b600101611775565b505f949350505050565b6117fd6118a5565b6065805473ffffffffffffffffffffffffffffffffffffffff83167fffffffffffffffffffffffff0000000000000000000000000000000000000000909116811790915561186060335473ffffffffffffffffffffffffffffffffffffffff1690565b73ffffffffffffffffffffffffffffffffffffffff167f38d16b8cac22d99fc7c124b9cd0de2d3fa1faef420bfe791d8c362d765e2270060405160405180910390a350565b60335473ffffffffffffffffffffffffffffffffffffffff1633146107bd576040517f08c379a000000000000000000000000000000000000000000000000000000000815260206004820181905260248201527f4f776e61626c653a2063616c6c6572206973206e6f7420746865206f776e65726044820152606401610496565b61192e6123b1565b609780547fffffffffffffffffffffffffffffffffffffffffffffffffffffffffffffff001690557f5db9ee0a495bf2e6ff9c91a7834c1ba4fdd244a5e8aa4e537bd38aeae4b073aa335b60405173ffffffffffffffffffffffffffffffffffffffff909116815260200160405180910390a1565b60975460ff16156107bd576040517f08c379a000000000000000000000000000000000000000000000000000000000815260206004820152601060248201527f5061757361626c653a20706175736564000000000000000000000000000000006044820152606401610496565b81816005811015611a4f576040517fe7c8d4cf000000000000000000000000000000000000000000000000000000008152600401610496929190613950565b50505f82826004818110611a6557611a65613674565b919091013560f81c9150611a7c905081600661399c565b8390839060ff16811015611abe576040517fe7c8d4cf000000000000000000000000000000000000000000000000000000008152600401610496929190613950565b505f90508383611acf84600561399c565b60ff16818110611ae157611ae1613674565b919091013560f81c9150849050838215611b29576040517f884f49ba000000000000000000000000000000000000000000000000000000008152600401610496929190613950565b505050505050565b5f5f5f611b3e858561241d565b90945092509050848482611b80576040517fe7c8d4cf000000000000000000000000000000000000000000000000000000008152600401610496929190613950565b5050509250929050565b467f000000000000000000000000000000000000000000000000000000000000000014158015611bda57507f00000000000000000000000000000000000000000000000000000000000000008114155b46829091611c1d576040517fc5441a6300000000000000000000000000000000000000000000000000000000815260048101929092526024820152604401610496565b505050565b81816005811015611c61576040517fe7c8d4cf000000000000000000000000000000000000000000000000000000008152600401610496929190613950565b50505f82826004818110611c7757611c77613674565b919091013560f81c9150839050828215611cbf576040517ffe8b1b16000000000000000000000000000000000000000000000000000000008152600401610496929190613950565b5050505050565b60605f611cd2846124db565b8051604051919250611d0f917e010000000000000000000000000000000000000000000000000000000000009190849060149088906020016139cc565b6040516020818303038152906040529150505b92915050565b6040805160a0810182527f010000000000000000000000000000000000000000000000000000000000000081526020808201879052335f81815260cb8352848120548551919586958695909491850193611db393910160609290921b7fffffffffffffffffffffffffffffffffffffffff000000000000000000000000168252601482015260340190565b604051602081830303815290604052805190602001208152602001875167ffffffffffffffff811115611de857611de8613108565b604051908082528060200260200182016040528015611e6757816020015b6040805160c0810182525f80825260208083018290529282018190526060808301829052608083019190915260a082015282527fffffffffffffffffffffffffffffffffffffffffffffffffffffffffffffffff909201910181611e065790505b5081526020908101879052335f90815260cb90915260408120805492935091611e8f90613a8a565b9091555085515f5b81811015611f76575f611ec4898381518110611eb557611eb5613674565b60200260200101518b3361258d565b90508084606001518381518110611edd57611edd613674565b6020026020010181905250888281518110611efa57611efa613674565b6020026020010151604001515f015185611f149190613ac1565b9450888281518110611f2857611f28613674565b6020026020010151604001516020015115611f6d57888281518110611f4f57611f4f613674565b6020026020010151604001516040015185611f6a9190613ac1565b94505b50600101611e97565b50611f85826020015184612890565b5f82604051602001611f979190613c37565b604080517fffffffffffffffffffffffffffffffffffffffffffffffffffffffffffffffe081840301815291905290505f611fd5618000600861362d565b73ffffffffffffffffffffffffffffffffffffffff166362f84b24600160f81b84604051602001612007929190613c49565b6040516020818303038152906040526040518263ffffffff1660e01b81526004016120329190613c7c565b6020604051808303815f875af115801561204e573d5f5f3e3d5ffd5b505050506040513d601f19601f8201168201806040525081019061207291906135e9565b905061207e4683612b8d565b95505f5b83811015612195575f856060015182815181106120a1576120a1613674565b6020026020010151905087826040516020016120c7929190918252602082015260400190565b604051602081830303815290604052805190602001207f7446eaa0a0dda80670b3bfe972bfbefab659bcfb67abad4e0b64dc4630a7048161210c468460600151611cc6565b61211a8f8560400151611cc6565b8e868151811061212c5761212c613674565b6020026020010151602001518f878151811061214a5761214a613674565b6020026020010151604001515f01518e888151811061216b5761216b613674565b6020026020010151604051612184959493929190613d06565b60405180910390a250600101612082565b507f5d77441e37e4c887e7905c1960037e06090c44e60d366a5f791f3cc480c255f48187866040516121c993929190613d64565b60405180910390a15050505050949350505050565b606580547fffffffffffffffffffffffff0000000000000000000000000000000000000000169055610b9981612bbf565b6122176130ea565b50604080516080810182527f54b165290000000000000000000000000000000000000000000000000000000081527fc8496ea70000000000000000000000000000000000000000000000000000000060208201527f054c031b00000000000000000000000000000000000000000000000000000000918101919091527fb9c8669800000000000000000000000000000000000000000000000000000000606082015290565b5f6122cb602460048486613d82565b6122d491613da9565b9392505050565b365f6122ea8360048187613d82565b915091505b9250929050565b6122fe6119a3565b609780547fffffffffffffffffffffffffffffffffffffffffffffffffffffffffffffff001660011790557f62e78cea01bee320cd4e420270b5ea74000d11b0c9f74754ebdbfc544b05a2586119793390565b7f8e94fed44239eb2314ab7a406345e6c5a8f0ccedf3b600de3d004e672c33abf4805460019091558015610b99576040517fdf3a8fdd00000000000000000000000000000000000000000000000000000000815260040160405180910390fd5b60975460ff166107bd576040517f08c379a000000000000000000000000000000000000000000000000000000000815260206004820152601460248201527f5061757361626c653a206e6f74207061757365640000000000000000000000006044820152606401610496565b5f5f5f5f5f365f365f6124308b8b612c35565b95509550955095509550955085801561246957507fffff0000000000000000000000000000000000000000000000000000000000008516155b80156124755750602183105b801561248957508015806124895750601481145b612495575f5f5f6124c8565b60016124a2846008613de5565b6124ae90610100613dfc565b6124b88587613da9565b901c6124c48385613e0f565b60601c5b9850985098505050505050509250925092565b60605f61253a835f60076fffffffffffffffffffffffffffffffff8311901b9050600667ffffffffffffffff83831c11901b17600563ffffffff83831c11901b17600461ffff83831c11901b1760ff82821c1160039190911c17919050565b60010190506122d4816020038460405160200161255991815260200190565b604080517fffffffffffffffffffffffffffffffffffffffffffffffffffffffffffffffe081840301815291905290612dbf565b6040805160c0810182525f808252602082018190529181018290526060808201839052608082019290925260a081019190915283516040850151602001511561281857604080860151808201519051602088015192517f6d7c24da0000000000000000000000000000000000000000000000000000000081525f9373ffffffffffffffffffffffffffffffffffffffff861693636d7c24da93909261263b928b928b92909190600401613e74565b5f6040518083038185885af1158015612656573d5f5f3e3d5ffd5b50505050506040513d5f823e601f3d9081017fffffffffffffffffffffffffffffffffffffffffffffffffffffffffffffffe016820160405261269c9190810190613f05565b60408082015190517f7df96ccd0000000000000000000000000000000000000000000000000000000081529192505f913091637df96ccd916126e391908590600401614042565b5f60405180830381865afa1580156126fd573d5f5f3e3d5ffd5b505050506040513d5f823e601f3d9081017fffffffffffffffffffffffffffffffffffffffffffffffffffffffffffffffe01682016040526127429190810190614098565b508051604089015151919250818114612790576040517f62d214aa00000000000000000000000000000000000000000000000000000000815260048101929092526024820152604401610496565b50505f61279f835f0151612dcd565b6040805160c0810182527f010000000000000000000000000000000000000000000000000000000000000081525f60208083019190915273ffffffffffffffffffffffffffffffffffffffff938416828401529288166060820152908b015151608082015294015160a085015250919350612888915050565b6040805160c0810182527f010000000000000000000000000000000000000000000000000000000000000081525f60208083019190915273ffffffffffffffffffffffffffffffffffffffff8085168385015286166060830152918701515160808201529086015160a082015291505b509392505050565b6040517fe52db4ca000000000000000000000000000000000000000000000000000000008152600481018390525f907f000000000000000000000000000000000000000000000000000000000000000073ffffffffffffffffffffffffffffffffffffffff169063e52db4ca90602401602060405180830381865afa15801561291b573d5f5f3e3d5ffd5b505050506040513d601f19601f8201168201806040525081019061293f91906135e9565b6040517fe52db4ca0000000000000000000000000000000000000000000000000000000081524660048201529091505f9073ffffffffffffffffffffffffffffffffffffffff7f0000000000000000000000000000000000000000000000000000000000000000169063e52db4ca90602401602060405180830381865afa1580156129cc573d5f5f3e3d5ffd5b505050506040513d601f19601f820116820180604052508101906129f091906135e9565b9050808203612aae578234808214612a3d576040517f4a09443100000000000000000000000000000000000000000000000000000000815260048101929092526024820152604401610496565b50612a4d9050618000600a61362d565b73ffffffffffffffffffffffffffffffffffffffff166323c2ec09846040518263ffffffff1660e01b81526004015f604051808303818588803b158015612a92575f5ffd5b505af1158015612aa4573d5f5f3e3d5ffd5b5050505050612b87565b5f348015612af1576040517f4a09443100000000000000000000000000000000000000000000000000000000815260048101929092526024820152604401610496565b505060c9546040517fc487944000000000000000000000000000000000000000000000000000000000815260048101869052602481018490523360448201526064810185905273ffffffffffffffffffffffffffffffffffffffff9091169063c4879440906084015f604051808303815f87803b158015612b70575f5ffd5b505af1158015612b82573d5f5f3e3d5ffd5b505050505b50505050565b5f8282604051602001612ba1929190614176565b60405160208183030381529060405280519060200120905092915050565b6033805473ffffffffffffffffffffffffffffffffffffffff8381167fffffffffffffffffffffffff0000000000000000000000000000000000000000831681179093556040519116919082907f8be0079c531659141344cd1fd0a4f28419497f9722a3daafe3b4186f6b6457e0905f90a35050565b60015f368181816006871015612c5b57505f945084935083925082915081905080612db5565b7fffff0000000000000000000000000000000000000000000000000000000000008835167e010000000000000000000000000000000000000000000000000000000000008114612cbd57505f9550859450849350839250829150819050612db5565b60028901357fffff0000000000000000000000000000000000000000000000000000000000001695505f89896004818110612cfa57612cfa613674565b919091013560f81c9150506006810160ff16891015612d2d57505f9650869550859450849350839250829150612db59050565b612d40600582810160ff16908b8d613d82565b955095505f8a8a8360050160ff16818110612d5d57612d5d613674565b919091013560f81c91505081810160060160ff168a1015612d9357505f9750879650869550859450849350839250612db5915050565b612dad60ff60068484018101821691908501168c8e613d82565b945094505050505b9295509295509295565b60606122d483838551612e20565b5f5f5f612dd984612ea4565b909450925090508381612e19576040517fe7c8d4cf0000000000000000000000000000000000000000000000000000000081526004016104969190613c7c565b5050915091565b8251606090612e2f8382612f5d565b9250612e3b8484612f5d565b93505f612e488585613dfc565b67ffffffffffffffff811115612e6057612e60613108565b6040519080825280601f01601f191660200182016040528015612e8a576020820181803683370190505b509050848403856020880101602083015e95945050505050565b5f5f5f5f5f5f5f612eb488612f6c565b9350935093509350838015612ee957507fffff0000000000000000000000000000000000000000000000000000000000008316155b8015612ef6575060218251105b8015612f0c575080511580612f0c575080516014145b612f18575f5f5f612f4c565b600182516008612f289190613de5565b612f3490610100613dfc565b612f3d8461418e565b901c612f48836141d3565b60601c5b965096509650505050509193909250565b5f8282188284100282186122d4565b5f5f60608060019350600685511015612f9057505f925082915060609050806130e3565b60208501517fffff000000000000000000000000000000000000000000000000000000000000167e010000000000000000000000000000000000000000000000000000000000008114612ff057505f9350839250606091508190506130e3565b60228601517fffff0000000000000000000000000000000000000000000000000000000000001693505f8660048151811061302d5761302d613674565b602001015160f81c60f81b60f81c90508060060160ff168751101561306157505f9450849350606092508291506130e39050565b61307287600560ff84820116612e20565b93505f878260050160ff168151811061308d5761308d613674565b602001015160f81c60f81b60f81c905080826006010160ff16885110156130c457505f9550859450606093508392506130e3915050565b6130dd88600684810160ff908116918587010116612e20565b93505050505b9193509193565b60405180608001604052806004906020820280368337509192915050565b7f4e487b71000000000000000000000000000000000000000000000000000000005f52604160045260245ffd5b60405160a0810167ffffffffffffffff8111828210171561315857613158613108565b60405290565b6040516060810167ffffffffffffffff8111828210171561315857613158613108565b6040805190810167ffffffffffffffff8111828210171561315857613158613108565b604051601f82017fffffffffffffffffffffffffffffffffffffffffffffffffffffffffffffffe016810167ffffffffffffffff811182821017156131eb576131eb613108565b604052919050565b5f5f5f5f848603610100811215613208575f5ffd5b8535945060208601359350604086013567ffffffffffffffff8116811461322d575f5ffd5b925060a07fffffffffffffffffffffffffffffffffffffffffffffffffffffffffffffffa08201121561325e575f5ffd5b50613267613135565b6060868101358252608080880135602084015260a0880135604084015260c08801359183019190915260e09096013595810195909552509194909350909190565b73ffffffffffffffffffffffffffffffffffffffff81168114610b99575f5ffd5b5f602082840312156132d9575f5ffd5b81356122d4816132a8565b5f5f83601f8401126132f4575f5ffd5b50813567ffffffffffffffff81111561330b575f5ffd5b6020830191508360208285010111156122ef575f5ffd5b5f5f83601f840112613332575f5ffd5b50813567ffffffffffffffff811115613349575f5ffd5b6020830191508360208260051b85010111156122ef575f5ffd5b5f5f5f5f5f5f60608789031215613378575f5ffd5b863567ffffffffffffffff81111561338e575f5ffd5b61339a89828a016132e4565b909750955050602087013567ffffffffffffffff8111156133b9575f5ffd5b6133c589828a01613322565b909550935050604087013567ffffffffffffffff8111156133e4575f5ffd5b6133f089828a01613322565b979a9699509497509295939492505050565b5f5f5f60408486031215613414575f5ffd5b833567ffffffffffffffff81111561342a575f5ffd5b61343686828701613322565b90945092505060208401356004811061344d575f5ffd5b809150509250925092565b5f81518084528060208401602086015e5f6020828601015260207fffffffffffffffffffffffffffffffffffffffffffffffffffffffffffffffe0601f83011685010191505092915050565b5f8151604084526134b86040850182613458565b9050602083015184820360208601526134d18282613458565b95945050505050565b8251815260208301511515602082015260408301516040820152608060608201525f61350960808301846134a4565b949350505050565b5f5f60408385031215613522575f5ffd5b823561352d816132a8565b9150602083013561353d816132a8565b809150509250929050565b5f5f5f5f5f5f6060878903121561355d575f5ffd5b863567ffffffffffffffff811115613573575f5ffd5b61357f89828a016132e4565b909750955050602087013567ffffffffffffffff81111561359e575f5ffd5b6133c589828a016132e4565b5f602082840312156135ba575f5ffd5b81357fffffffff00000000000000000000000000000000000000000000000000000000811681146122d4575f5ffd5b5f602082840312156135f9575f5ffd5b5051919050565b7f4e487b71000000000000000000000000000000000000000000000000000000005f52601160045260245ffd5b73ffffffffffffffffffffffffffffffffffffffff8181168382160190811115611d2257611d22613600565b5f60208284031215613669575f5ffd5b81516122d4816132a8565b7f4e487b71000000000000000000000000000000000000000000000000000000005f52603260045260245ffd5b5f82357fffffffffffffffffffffffffffffffffffffffffffffffffffffffffffffffa18336030181126136d3575f5ffd5b9190910192915050565b5f5f83357fffffffffffffffffffffffffffffffffffffffffffffffffffffffffffffffe1843603018112613710575f5ffd5b83018035915067ffffffffffffffff82111561372a575f5ffd5b6020019150368190038213156122ef575f5ffd5b5f5f83357fffffffffffffffffffffffffffffffffffffffffffffffffffffffffffffffe1843603018112613771575f5ffd5b83018035915067ffffffffffffffff82111561378b575f5ffd5b6020019150600581901b36038213156122ef575f5ffd5b5f67ffffffffffffffff8211156137bb576137bb613108565b5060051b60200190565b5f67ffffffffffffffff8211156137de576137de613108565b50601f017fffffffffffffffffffffffffffffffffffffffffffffffffffffffffffffffe01660200190565b5f61381c613817846137a2565b6131a4565b8381526020810190600585901b840136811115613837575f5ffd5b845b818110156138b257803567ffffffffffffffff811115613857575f5ffd5b860136601f820112613867575f5ffd5b8035613875613817826137c5565b818152366020838501011115613889575f5ffd5b816020840160208301375f60208383010152808752505050602084019350602081019050613839565b509095945050505050565b80357fffffffff00000000000000000000000000000000000000000000000000000000811690600484101561391c577fffffffff00000000000000000000000000000000000000000000000000000000808560040360031b1b82161691505b5092915050565b7f4e487b71000000000000000000000000000000000000000000000000000000005f52602160045260245ffd5b60208152816020820152818360408301375f818301604090810191909152601f9092017fffffffffffffffffffffffffffffffffffffffffffffffffffffffffffffffe0160101919050565b60ff8181168382160190811115611d2257611d22613600565b5f81518060208401855e5f93019283525090919050565b7fffffffff00000000000000000000000000000000000000000000000000000000861681527fff000000000000000000000000000000000000000000000000000000000000008560f81b1660048201525f613a2a60058301866139b5565b60f89490941b7fff00000000000000000000000000000000000000000000000000000000000000168452505060601b7fffffffffffffffffffffffffffffffffffffffff0000000000000000000000001660018201526015019392505050565b5f7fffffffffffffffffffffffffffffffffffffffffffffffffffffffffffffffff8203613aba57613aba613600565b5060010190565b80820180821115611d2257611d22613600565b5f60a083017fff0000000000000000000000000000000000000000000000000000000000000083511684526020830151602085015260408301516040850152606083015160a0606086015281815180845260c08701915060c08160051b88010193506020830192505f5b81811015613c1c577fffffffffffffffffffffffffffffffffffffffffffffffffffffffffffffff4088860301835283517fff00000000000000000000000000000000000000000000000000000000000000815116865260208101511515602087015273ffffffffffffffffffffffffffffffffffffffff604082015116604087015273ffffffffffffffffffffffffffffffffffffffff60608201511660608701526080810151608087015260a0810151905060c060a0870152613c0660c0870182613458565b9550506020938401939290920191600101613b3e565b50505050608083015184820360808601526134d182826134a4565b602081525f6122d46020830184613ad4565b7fff00000000000000000000000000000000000000000000000000000000000000831681525f61350960018301846139b5565b602081525f6122d46020830184613458565b5f82825180855260208501945060208160051b830101602085015f5b83811015613cfa577fffffffffffffffffffffffffffffffffffffffffffffffffffffffffffffffe0858403018852613ce4838351613458565b6020988901989093509190910190600101613caa565b50909695505050505050565b60a081525f613d1860a0830188613458565b8281036020840152613d2a8188613458565b90508281036040840152613d3e8187613458565b90508460608401528281036080840152613d588185613c8e565b98975050505050505050565b838152826020820152606060408201525f6134d16060830184613ad4565b5f5f85851115613d90575f5ffd5b83861115613d9c575f5ffd5b5050820193919092039150565b80356020831015611d22577fffffffffffffffffffffffffffffffffffffffffffffffffffffffffffffffff602084900360031b1b1692915050565b8082028115828204841417611d2257611d22613600565b81810381811115611d2257611d22613600565b80357fffffffffffffffffffffffffffffffffffffffff000000000000000000000000811690601484101561391c577fffffffffffffffffffffffffffffffffffffffff000000000000000000000000808560140360031b1b82161691505092915050565b84815273ffffffffffffffffffffffffffffffffffffffff84166020820152826040820152608060608201525f613eae6080830184613458565b9695505050505050565b5f82601f830112613ec7575f5ffd5b8151613ed5613817826137c5565b818152846020838601011115613ee9575f5ffd5b8160208501602083015e5f918101602001919091529392505050565b5f60208284031215613f15575f5ffd5b815167ffffffffffffffff811115613f2b575f5ffd5b820160608185031215613f3c575f5ffd5b613f4461315e565b815167ffffffffffffffff811115613f5a575f5ffd5b613f6686828501613eb8565b825250602082015167ffffffffffffffff811115613f82575f5ffd5b613f8e86828501613eb8565b602083015250604082015167ffffffffffffffff811115613fad575f5ffd5b80830192505084601f830112613fc1575f5ffd5b8151613fcf613817826137a2565b8082825260208201915060208360051b860101925087831115613ff0575f5ffd5b602085015b8381101561403157805167ffffffffffffffff811115614013575f5ffd5b6140228a6020838a0101613eb8565b84525060209283019201613ff5565b506040840152509095945050505050565b604081525f6140546040830185613c8e565b90506004831061408b577f4e487b71000000000000000000000000000000000000000000000000000000005f52602160045260245ffd5b8260208301529392505050565b5f5f82840360808112156140aa575f5ffd5b60608112156140b7575f5ffd5b506140c061315e565b83518152602084015180151581146140d6575f5ffd5b602082015260408481015190820152606084015190925067ffffffffffffffff811115614101575f5ffd5b830160408186031215614112575f5ffd5b61411a613181565b815167ffffffffffffffff811115614130575f5ffd5b61413c87828501613eb8565b825250602082015167ffffffffffffffff811115614158575f5ffd5b61416487828501613eb8565b60208301525080925050509250929050565b828152604060208201525f6135096040830184613458565b805160208083015191908110156141cd577fffffffffffffffffffffffffffffffffffffffffffffffffffffffffffffffff8160200360031b1b821691505b50919050565b805160208201517fffffffffffffffffffffffffffffffffffffffff000000000000000000000000811691906014821015614238577fffffffffffffffffffffffffffffffffffffffff000000000000000000000000808360140360031b1b82161692505b505091905056fea2646970667358221220113b78adb4f9f89f80f31c05c37b9668bbee4eaf755b8df44dc81d172efe9acb64736f6c634300081c0033",
    "linkReferences": {}
  },
  "methodIdentifiers": {
    "BRIDGE_HUB()": "5d4edca7",
    "L1_CHAIN_ID()": "2f90b184",
    "acceptOwnership()": "79ba5097",
    "assetRouter()": "bc0aac10",
    "assetTracker()": "bfa47de1",
    "forwardTransactionOnGatewayWithBalanceChange(uint256,bytes32,uint64,(bytes32,uint256,bytes32,uint256,uint256))": "0db33cef",
    "initialize(address)": "c4d66de8",
    "interopBundleNonce(address)": "5e4217e1",
    "owner()": "8da5cb5b",
    "parseAttributes(bytes[],uint8)": "7df96ccd",
    "pause()": "8456cb59",
    "paused()": "5c975abb",
    "pendingOwner()": "e30c3978",
    "renounceOwnership()": "715018a6",
    "sendBundle(bytes,(bytes,bytes,bytes[])[],bytes[])": "5ef7e104",
    "sendMessage(bytes,bytes,bytes[])": "cdfe7f5c",
    "setAddresses(address,address)": "90107afe",
    "supportsAttribute(bytes4)": "dc680a0f",
    "transferOwnership(address)": "f2fde38b",
    "unpause()": "3f4ba83a"
  },
  "id": 148
}