{"abi":[{"type":"constructor","inputs":[{"name":"_l1ChainId","type":"uint256","internalType":"uint256"},{"name":"_eraChainId","type":"uint256","internalType":"uint256"},{"name":"_l1AssetRouter","type":"address","internalType":"address"},{"name":"_legacySharedBridge","type":"address","internalType":"address"},{"name":"_baseTokenAssetId","type":"bytes32","internalType":"bytes32"},{"name":"_aliasedOwner","type":"address","internalType":"address"}],"stateMutability":"nonpayable"},{"type":"function","name":"BASE_TOKEN_ASSET_ID","inputs":[],"outputs":[{"name":"","type":"bytes32","internalType":"bytes32"}],"stateMutability":"view"},{"type":"function","name":"BRIDGE_HUB","inputs":[],"outputs":[{"name":"","type":"address","internalType":"contract IBridgehub"}],"stateMutability":"view"},{"type":"function","name":"ERA_CHAIN_ID","inputs":[],"outputs":[{"name":"","type":"uint256","internalType":"uint256"}],"stateMutability":"view"},{"type":"function","name":"INTEROP_CENTER","inputs":[],"outputs":[{"name":"","type":"address","internalType":"contract IInteropCenter"}],"stateMutability":"view"},{"type":"function","name":"L1_ASSET_ROUTER","inputs":[],"outputs":[{"name":"","type":"address","internalType":"address"}],"stateMutability":"view"},{"type":"function","name":"L1_CHAIN_ID","inputs":[],"outputs":[{"name":"","type":"uint256","internalType":"uint256"}],"stateMutability":"view"},{"type":"function","name":"L2_LEGACY_SHARED_BRIDGE","inputs":[],"outputs":[{"name":"","type":"address","internalType":"address"}],"stateMutability":"view"},{"type":"function","name":"acceptOwnership","inputs":[],"outputs":[],"stateMutability":"nonpayable"},{"type":"function","name":"assetDeploymentTracker","inputs":[{"name":"assetId","type":"bytes32","internalType":"bytes32"}],"outputs":[{"name":"assetDeploymentTracker","type":"address","internalType":"address"}],"stateMutability":"view"},{"type":"function","name":"assetHandlerAddress","inputs":[{"name":"assetId","type":"bytes32","internalType":"bytes32"}],"outputs":[{"name":"assetHandlerAddress","type":"address","internalType":"address"}],"stateMutability":"view"},{"type":"function","name":"bridgehubDepositBaseToken","inputs":[{"name":"_chainId","type":"uint256","internalType":"uint256"},{"name":"_assetId","type":"bytes32","internalType":"bytes32"},{"name":"_originalCaller","type":"address","internalType":"address"},{"name":"_amount","type":"uint256","internalType":"uint256"}],"outputs":[],"stateMutability":"payable"},{"type":"function","name":"finalizeDeposit","inputs":[{"name":"_originChainId","type":"uint256","internalType":"uint256"},{"name":"_assetId","type":"bytes32","internalType":"bytes32"},{"name":"_transferData","type":"bytes","internalType":"bytes"}],"outputs":[],"stateMutability":"payable"},{"type":"function","name":"finalizeDeposit","inputs":[{"name":"_l1Sender","type":"address","internalType":"address"},{"name":"_l2Receiver","type":"address","internalType":"address"},{"name":"_l1Token","type":"address","internalType":"address"},{"name":"_amount","type":"uint256","internalType":"uint256"},{"name":"_data","type":"bytes","internalType":"bytes"}],"outputs":[],"stateMutability":"payable"},{"type":"function","name":"finalizeDepositLegacyBridge","inputs":[{"name":"_l1Sender","type":"address","internalType":"address"},{"name":"_l2Receiver","type":"address","internalType":"address"},{"name":"_l1Token","type":"address","internalType":"address"},{"name":"_amount","type":"uint256","internalType":"uint256"},{"name":"_data","type":"bytes","internalType":"bytes"}],"outputs":[],"stateMutability":"nonpayable"},{"type":"function","name":"getDepositCalldata","inputs":[{"name":"","type":"address","internalType":"address"},{"name":"_assetId","type":"bytes32","internalType":"bytes32"},{"name":"_assetData","type":"bytes","internalType":"bytes"}],"outputs":[{"name":"","type":"bytes","internalType":"bytes"}],"stateMutability":"view"},{"type":"function","name":"initiateBridging","inputs":[{"name":"_chainId","type":"uint256","internalType":"uint256"},{"name":"_originalCaller","type":"address","internalType":"address"},{"name":"_value","type":"uint256","internalType":"uint256"},{"name":"_data","type":"bytes","internalType":"bytes"}],"outputs":[{"name":"interopCallStarter","type":"tuple","internalType":"struct InteropCallStarter","components":[{"name":"to","type":"bytes","internalType":"bytes"},{"name":"data","type":"bytes","internalType":"bytes"},{"name":"callAttributes","type":"bytes[]","internalType":"bytes[]"}]}],"stateMutability":"payable"},{"type":"function","name":"l1Bridge","inputs":[],"outputs":[{"name":"","type":"address","internalType":"address"}],"stateMutability":"view"},{"type":"function","name":"l1TokenAddress","inputs":[{"name":"_l2Token","type":"address","internalType":"address"}],"outputs":[{"name":"","type":"address","internalType":"address"}],"stateMutability":"view"},{"type":"function","name":"l2TokenAddress","inputs":[{"name":"_l1Token","type":"address","internalType":"address"}],"outputs":[{"name":"","type":"address","internalType":"address"}],"stateMutability":"view"},{"type":"function","name":"owner","inputs":[],"outputs":[{"name":"","type":"address","internalType":"address"}],"stateMutability":"view"},{"type":"function","name":"pause","inputs":[],"outputs":[],"stateMutability":"nonpayable"},{"type":"function","name":"paused","inputs":[],"outputs":[{"name":"","type":"bool","internalType":"bool"}],"stateMutability":"view"},{"type":"function","name":"pendingOwner","inputs":[],"outputs":[{"name":"","type":"address","internalType":"address"}],"stateMutability":"view"},{"type":"function","name":"receiveMessage","inputs":[{"name":"","type":"bytes32","internalType":"bytes32"},{"name":"sender","type":"bytes","internalType":"bytes"},{"name":"payload","type":"bytes","internalType":"bytes"}],"outputs":[{"name":"","type":"bytes4","internalType":"bytes4"}],"stateMutability":"payable"},{"type":"function","name":"renounceOwnership","inputs":[],"outputs":[],"stateMutability":"nonpayable"},{"type":"function","name":"setAssetHandlerAddress","inputs":[{"name":"_originChainId","type":"uint256","internalType":"uint256"},{"name":"_assetId","type":"bytes32","internalType":"bytes32"},{"name":"_assetHandlerAddress","type":"address","internalType":"address"}],"outputs":[],"stateMutability":"nonpayable"},{"type":"function","name":"setAssetHandlerAddressThisChain","inputs":[{"name":"_assetRegistrationData","type":"bytes32","internalType":"bytes32"},{"name":"_assetHandlerAddress","type":"address","internalType":"address"}],"outputs":[],"stateMutability":"nonpayable"},{"type":"function","name":"setLegacyTokenAssetHandler","inputs":[{"name":"_assetId","type":"bytes32","internalType":"bytes32"}],"outputs":[],"stateMutability":"nonpayable"},{"type":"function","name":"transferOwnership","inputs":[{"name":"newOwner","type":"address","internalType":"address"}],"outputs":[],"stateMutability":"nonpayable"},{"type":"function","name":"unpause","inputs":[],"outputs":[],"stateMutability":"nonpayable"},{"type":"function","name":"withdraw","inputs":[{"name":"_assetId","type":"bytes32","internalType":"bytes32"},{"name":"_assetData","type":"bytes","internalType":"bytes"}],"outputs":[{"name":"","type":"bytes32","internalType":"bytes32"}],"stateMutability":"nonpayable"},{"type":"function","name":"withdraw","inputs":[{"name":"_l1Receiver","type":"address","internalType":"address"},{"name":"_l2Token","type":"address","internalType":"address"},{"name":"_amount","type":"uint256","internalType":"uint256"}],"outputs":[],"stateMutability":"nonpayable"},{"type":"function","name":"withdrawLegacyBridge","inputs":[{"name":"_l1Receiver","type":"address","internalType":"address"},{"name":"_l2Token","type":"address","internalType":"address"},{"name":"_amount","type":"uint256","internalType":"uint256"},{"name":"_sender","type":"address","internalType":"address"}],"outputs":[],"stateMutability":"nonpayable"},{"type":"event","name":"AssetDeploymentTrackerRegistered","inputs":[{"name":"assetId","type":"bytes32","indexed":true,"internalType":"bytes32"},{"name":"additionalData","type":"bytes32","indexed":true,"internalType":"bytes32"},{"name":"assetDeploymentTracker","type":"address","indexed":false,"internalType":"address"}],"anonymous":false},{"type":"event","name":"AssetHandlerRegistered","inputs":[{"name":"assetId","type":"bytes32","indexed":true,"internalType":"bytes32"},{"name":"_assetHandlerAddress","type":"address","indexed":true,"internalType":"address"}],"anonymous":false},{"type":"event","name":"BridgehubDepositBaseTokenInitiated","inputs":[{"name":"chainId","type":"uint256","indexed":true,"internalType":"uint256"},{"name":"from","type":"address","indexed":true,"internalType":"address"},{"name":"assetId","type":"bytes32","indexed":false,"internalType":"bytes32"},{"name":"amount","type":"uint256","indexed":false,"internalType":"uint256"}],"anonymous":false},{"type":"event","name":"BridgehubDepositInitiated","inputs":[{"name":"chainId","type":"uint256","indexed":true,"internalType":"uint256"},{"name":"txDataHash","type":"bytes32","indexed":true,"internalType":"bytes32"},{"name":"from","type":"address","indexed":true,"internalType":"address"},{"name":"assetId","type":"bytes32","indexed":false,"internalType":"bytes32"},{"name":"bridgeMintCalldata","type":"bytes","indexed":false,"internalType":"bytes"}],"anonymous":false},{"type":"event","name":"BridgehubWithdrawalInitiated","inputs":[{"name":"chainId","type":"uint256","indexed":false,"internalType":"uint256"},{"name":"sender","type":"address","indexed":true,"internalType":"address"},{"name":"assetId","type":"bytes32","indexed":true,"internalType":"bytes32"},{"name":"assetDataHash","type":"bytes32","indexed":false,"internalType":"bytes32"}],"anonymous":false},{"type":"event","name":"DepositFinalizedAssetRouter","inputs":[{"name":"chainId","type":"uint256","indexed":true,"internalType":"uint256"},{"name":"assetId","type":"bytes32","indexed":true,"internalType":"bytes32"},{"name":"assetData","type":"bytes","indexed":false,"internalType":"bytes"}],"anonymous":false},{"type":"event","name":"Initialized","inputs":[{"name":"version","type":"uint8","indexed":false,"internalType":"uint8"}],"anonymous":false},{"type":"event","name":"OwnershipTransferStarted","inputs":[{"name":"previousOwner","type":"address","indexed":true,"internalType":"address"},{"name":"newOwner","type":"address","indexed":true,"internalType":"address"}],"anonymous":false},{"type":"event","name":"OwnershipTransferred","inputs":[{"name":"previousOwner","type":"address","indexed":true,"internalType":"address"},{"name":"newOwner","type":"address","indexed":true,"internalType":"address"}],"anonymous":false},{"type":"event","name":"Paused","inputs":[{"name":"account","type":"address","indexed":false,"internalType":"address"}],"anonymous":false},{"type":"event","name":"Unpaused","inputs":[{"name":"account","type":"address","indexed":false,"internalType":"address"}],"anonymous":false},{"type":"event","name":"WithdrawalInitiatedAssetRouter","inputs":[{"name":"chainId","type":"uint256","indexed":false,"internalType":"uint256"},{"name":"l2Sender","type":"address","indexed":true,"internalType":"address"},{"name":"assetId","type":"bytes32","indexed":true,"internalType":"bytes32"},{"name":"assetData","type":"bytes","indexed":false,"internalType":"bytes"}],"anonymous":false},{"type":"error","name":"AmountMustBeGreaterThanZero","inputs":[]},{"type":"error","name":"AssetHandlerDoesNotExist","inputs":[{"name":"assetId","type":"bytes32","internalType":"bytes32"}]},{"type":"error","name":"AssetIdNotSupported","inputs":[{"name":"assetId","type":"bytes32","internalType":"bytes32"}]},{"type":"error","name":"BadTransferDataLength","inputs":[]},{"type":"error","name":"EmptyAddress","inputs":[]},{"type":"error","name":"ExecuteMessageFailed","inputs":[]},{"type":"error","name":"IncorrectTokenAddressFromNTV","inputs":[{"name":"assetId","type":"bytes32","internalType":"bytes32"},{"name":"tokenAddress","type":"address","internalType":"address"}]},{"type":"error","name":"InteroperableAddressParsingError","inputs":[{"name":"","type":"bytes","internalType":"bytes"}]},{"type":"error","name":"InvalidNTVBurnData","inputs":[]},{"type":"error","name":"InvalidSelector","inputs":[{"name":"func","type":"bytes4","internalType":"bytes4"}]},{"type":"error","name":"NotInitializedReentrancyGuard","inputs":[]},{"type":"error","name":"PayloadTooShort","inputs":[]},{"type":"error","name":"Reentrancy","inputs":[]},{"type":"error","name":"SlotOccupied","inputs":[]},{"type":"error","name":"TokenNotLegacy","inputs":[]},{"type":"error","name":"Unauthorized","inputs":[{"name":"caller","type":"address","internalType":"address"}]},{"type":"error","name":"UnsupportedEncodingVersion","inputs":[]}],"bytecode":{"object":"0x610160604052348015610010575f5ffd5b506040516144ae3803806144ae83398101604081905261002f916102c6565b858561003f620100006002610322565b61004d62010000600b610322565b60c09390935260e0919091526001600160a01b039081166080521660a0526100736100e8565b6001600160a01b038084166101005284166100a157604051637138356f60e01b815260040160405180910390fd5b6001600160a01b038416610140526100c6826100c1620100006004610322565b610132565b6101208290526100d461018a565b6100dd81610246565b505050505050610353565b7f8e94fed44239eb2314ab7a406345e6c5a8f0ccedf3b600de3d004e672c33abf480546001909155801561012f5760405163df3a8fdd60e01b815260040160405180910390fd5b50565b5f82815260c9602052604080822080546001600160a01b0319166001600160a01b0385169081179091559051909184917f2632cc0d58b0cb1017b99cc0b6cc66ad86440cc0dd923bfdaa294f95ba1b02019190a35050565b5f54610100900460ff16156101f55760405162461bcd60e51b815260206004820152602760248201527f496e697469616c697a61626c653a20636f6e747261637420697320696e697469604482015266616c697a696e6760c81b606482015260840160405180910390fd5b5f5460ff90811614610244575f805460ff191660ff9081179091556040519081527f7f26b83ff96e1f2b6a682f133852f6798a09c465da95921460cefb38474024989060200160405180910390a15b565b606580546001600160a01b031916905561012f81603380546001600160a01b038381166001600160a01b0319831681179093556040519116919082907f8be0079c531659141344cd1fd0a4f28419497f9722a3daafe3b4186f6b6457e0905f90a35050565b80516001600160a01b03811681146102c1575f5ffd5b919050565b5f5f5f5f5f5f60c087890312156102db575f5ffd5b8651602088015190965094506102f3604088016102ab565b9350610301606088016102ab565b92506080870151915061031660a088016102ab565b90509295509295509295565b6001600160a01b03818116838216019081111561034d57634e487b7160e01b5f52601160045260245ffd5b92915050565b60805160a05160c05160e0516101005161012051610140516140776104375f395f8181610523015281816105e4015281816110f30152818161142e015261169201525f81816105b1015261128f01525f818161056b01528181610bf801528181610f4101528181611d4d0152611f4801525f61069201525f818161027401528181610724015281816110b7015281816113f8015281816116560152818161193301528181611ac601528181611d0901528181611ffe015281816121c401528181612267015261243c01525f61040d01525f81816103da0152612db101526140775ff3fe6080604052600436106101f5575f3560e01c80638456cb5911610117578063cdf25430116100ac578063e30c39781161007c578063f2fde38b11610062578063f2fde38b146106b4578063f54266a2146106d3578063f5f15168146106f2575f5ffd5b8063e30c397814610657578063ef011dff14610681575f5ffd5b8063cdf25430146105d3578063cfe7af7c14610606578063d9caed1214610619578063da556bdc14610638575f5ffd5b80639c884fd1116100e75780639c884fd114610547578063c438a9f21461055a578063c48794401461058d578063cb944dec146105a0575f5ffd5b80638456cb591461049657806385e4e16a146104aa5780638da5cb5b146104eb578063969b53da14610515575f5ffd5b806354b2e69c1161018d5780636d7c24da1161015d5780636d7c24da1461042f578063715018a61461044f57806379ba5097146104635780637ac3a55314610477575f5ffd5b806354b2e69c146103885780635c975abb146103a75780635d4edca7146103c95780635ecd0e3a146103fc575f5ffd5b80633f4ba83a116101c85780633f4ba83a146102d05780634a2e35ba146102e457806353b9e63214610303578063548a5a3314610369575f5ffd5b80632432ef26146101f95780632ed342aa146102425780632f90b184146102635780632ff0b2ea146102a4575b5f5ffd5b61020c610207366004613511565b610711565b6040517fffffffff0000000000000000000000000000000000000000000000000000000090911681526020015b60405180910390f35b34801561024d575f5ffd5b5061026161025c36600461358a565b610996565b005b34801561026e575f5ffd5b506102967f000000000000000000000000000000000000000000000000000000000000000081565b604051908152602001610239565b3480156102af575f5ffd5b506102c36102be3660046136d5565b610a28565b6040516102399190613776565b3480156102db575f5ffd5b50610261610abe565b3480156102ef575f5ffd5b506102966102fe36600461378f565b610ad0565b34801561030e575f5ffd5b5061034461031d36600461358a565b60c96020525f908152604090205473ffffffffffffffffffffffffffffffffffffffff1681565b60405173ffffffffffffffffffffffffffffffffffffffff9091168152602001610239565b348015610374575f5ffd5b506102616103833660046137d3565b610bc4565b348015610393575f5ffd5b506102616103a2366004613801565b610be0565b3480156103b2575f5ffd5b5060975460ff166040519015158152602001610239565b3480156103d4575f5ffd5b506103447f000000000000000000000000000000000000000000000000000000000000000081565b348015610407575f5ffd5b506103447f000000000000000000000000000000000000000000000000000000000000000081565b61044261043d366004613881565b610c80565b60405161023991906138c9565b34801561045a575f5ffd5b50610261610e66565b34801561046e575f5ffd5b50610261610e77565b348015610482575f5ffd5b506102616104913660046139c9565b610f29565b3480156104a1575f5ffd5b506102616110a4565b3480156104b5575f5ffd5b506103446104c436600461358a565b60ca6020525f908152604090205473ffffffffffffffffffffffffffffffffffffffff1681565b3480156104f6575f5ffd5b5060335473ffffffffffffffffffffffffffffffffffffffff16610344565b348015610520575f5ffd5b507f0000000000000000000000000000000000000000000000000000000000000000610344565b610261610555366004613a19565b6110b4565b348015610565575f5ffd5b506103447f000000000000000000000000000000000000000000000000000000000000000081565b61026161059b366004613a68565b61136c565b3480156105ab575f5ffd5b506102967f000000000000000000000000000000000000000000000000000000000000000081565b3480156105de575f5ffd5b506103447f000000000000000000000000000000000000000000000000000000000000000081565b610261610614366004613801565b6113f6565b348015610624575f5ffd5b50610261610633366004613aa4565b61152a565b348015610643575f5ffd5b50610261610652366004613ae2565b611653565b348015610662575f5ffd5b5060655473ffffffffffffffffffffffffffffffffffffffff16610344565b34801561068c575f5ffd5b506102967f000000000000000000000000000000000000000000000000000000000000000081565b3480156106bf575f5ffd5b506102616106ce366004613b18565b611748565b3480156106de575f5ffd5b506103446106ed366004613b18565b6117f8565b3480156106fd575f5ffd5b5061034461070c366004613b18565b6119d6565b5f5f5f61071e8787611b2e565b915091507f00000000000000000000000000000000000000000000000000000000000000008214158015610767575073ffffffffffffffffffffffffffffffffffffffff811630145b81906107bd576040517f8e4a23d600000000000000000000000000000000000000000000000000000000815273ffffffffffffffffffffffffffffffffffffffff90911660048201526024015b60405180910390fd5b50600484116107f8576040517f97da9c1c00000000000000000000000000000000000000000000000000000000815260040160405180910390fd5b7f9c884fd10000000000000000000000000000000000000000000000000000000061082660045f8789613b33565b61082f91613b5a565b7fffffffff00000000000000000000000000000000000000000000000000000000161461085f60045f8789613b33565b61086891613b5a565b906108c4576040517f12ba286f0000000000000000000000000000000000000000000000000000000081527fffffffff0000000000000000000000000000000000000000000000000000000090911660048201526024016107b4565b505f3073ffffffffffffffffffffffffffffffffffffffff1686866040516108ed929190613bc0565b5f604051808303815f865af19150503d805f8114610926576040519150601f19603f3d011682016040523d82523d5f602084013e61092b565b606091505b5050905080610966576040517ff407261600000000000000000000000000000000000000000000000000000000815260040160405180910390fd5b507f2432ef2600000000000000000000000000000000000000000000000000000000925050505b95945050505050565b6109a4620100006004613bfc565b339073ffffffffffffffffffffffffffffffffffffffff168114610a0d576040517f8e4a23d600000000000000000000000000000000000000000000000000000000815273ffffffffffffffffffffffffffffffffffffffff90911660048201526024016107b4565b50610a2581610a20620100006004613bfc565b611b87565b50565b6060468383604051602401610a3f93929190613c28565b604080517fffffffffffffffffffffffffffffffffffffffffffffffffffffffffffffffe08184030181529190526020810180517bffffffffffffffffffffffffffffffffffffffffffffffffffffffff167f9c884fd10000000000000000000000000000000000000000000000000000000017905290509392505050565b610ac6611c04565b610ace611c85565b565b7f8e94fed44239eb2314ab7a406345e6c5a8f0ccedf3b600de3d004e672c33abf4545f90808203610b2d576040517fdd7e362100000000000000000000000000000000000000000000000000000000815260040160405180910390fd5b60018114610b67576040517fab143c0600000000000000000000000000000000000000000000000000000000815260040160405180910390fd5b60027f8e94fed44239eb2314ab7a406345e6c5a8f0ccedf3b600de3d004e672c33abf455610b988484336001611d02565b60017f8e94fed44239eb2314ab7a406345e6c5a8f0ccedf3b600de3d004e672c33abf455949350505050565b610bdc610bd5620100006004613bfc565b838361203e565b5050565b3373ffffffffffffffffffffffffffffffffffffffff7f0000000000000000000000000000000000000000000000000000000000000000168114610c69576040517f8e4a23d600000000000000000000000000000000000000000000000000000000815273ffffffffffffffffffffffffffffffffffffffff90911660048201526024016107b4565b50610c788686868686866121be565b505050505050565b610ca460405180606001604052806060815260200160608152602001606081525090565b610cb262010000600b613bfc565b339073ffffffffffffffffffffffffffffffffffffffff168114610d1b576040517f8e4a23d600000000000000000000000000000000000000000000000000000000815273ffffffffffffffffffffffffffffffffffffffff90911660048201526024016107b4565b505f610d388787878787610d33620100006004613bfc565b6122cb565b6040805160018082528183019092529192505f9190816020015b6060815260200190600190039081610d5257905050604080517f54b16529000000000000000000000000000000000000000000000000000000006020820152908101889052909150606001604051602081830303815290604052815f81518110610dbe57610dbe613c46565b60200260200101819052506040518060600160405280610e4a84602001516040517e010000001400000000000000000000000000000000000000000000000000006020820152606082811b7fffffffffffffffffffffffffffffffffffffffff00000000000000000000000016602683015290603a016040516020818303038152906040529050919050565b8152604093840151602082015292909201529695505050505050565b610e6e611c04565b610ace5f6123ac565b606554339073ffffffffffffffffffffffffffffffffffffffff168114610f20576040517f08c379a000000000000000000000000000000000000000000000000000000000815260206004820152602960248201527f4f776e61626c6532537465703a2063616c6c6572206973206e6f74207468652060448201527f6e6577206f776e6572000000000000000000000000000000000000000000000060648201526084016107b4565b610a25816123ac565b3373ffffffffffffffffffffffffffffffffffffffff7f0000000000000000000000000000000000000000000000000000000000000000168114610fb2576040517f8e4a23d600000000000000000000000000000000000000000000000000000000815273ffffffffffffffffffffffffffffffffffffffff90911660048201526024016107b4565b507f8e94fed44239eb2314ab7a406345e6c5a8f0ccedf3b600de3d004e672c33abf4545f81900361100f576040517fdd7e362100000000000000000000000000000000000000000000000000000000815260040160405180910390fd5b60018114611049576040517fab143c0600000000000000000000000000000000000000000000000000000000815260040160405180910390fd5b60027f8e94fed44239eb2314ab7a406345e6c5a8f0ccedf3b600de3d004e672c33abf455611079858585856123dd565b60017f8e94fed44239eb2314ab7a406345e6c5a8f0ccedf3b600de3d004e672c33abf4555050505050565b6110ac611c04565b610ace612487565b837f000000000000000000000000000000000000000000000000000000000000000081036111985773ffffffffffffffffffffffffffffffffffffffff7f0000000000000000000000000000000000000000000000000000000000000000167fffffffffffffffffffffffffeeeeffffffffffffffffffffffffffffffffeeef330173ffffffffffffffffffffffffffffffffffffffff161415801561115a5750333014155b15611193576040517f8e4a23d60000000000000000000000000000000000000000000000000000000081523360048201526024016107b4565b6111d3565b3330146111d3576040517f8e4a23d60000000000000000000000000000000000000000000000000000000081523360048201526024016107b4565b7f8e94fed44239eb2314ab7a406345e6c5a8f0ccedf3b600de3d004e672c33abf4545f81900361122f576040517fdd7e362100000000000000000000000000000000000000000000000000000000815260040160405180910390fd5b60018114611269576040517fab143c0600000000000000000000000000000000000000000000000000000000815260040160405180910390fd5b60027f8e94fed44239eb2314ab7a406345e6c5a8f0ccedf3b600de3d004e672c33abf4557f00000000000000000000000000000000000000000000000000000000000000008581036112ea576040517f04a0b7e90000000000000000000000000000000000000000000000000000000081526004016107b491815260200190565b5061130586868686611300620100006004613bfc565b6124e2565b84867f44eb9a840094a49b3cd0a5205042598a1c08c4e87bafb5760bc2d8efa170c5418686604051611338929190613cba565b60405180910390a360017f8e94fed44239eb2314ab7a406345e6c5a8f0ccedf3b600de3d004e672c33abf455505050505050565b61137a62010000600b613bfc565b339073ffffffffffffffffffffffffffffffffffffffff1681146113e3576040517f8e4a23d600000000000000000000000000000000000000000000000000000000815273ffffffffffffffffffffffffffffffffffffffff90911660048201526024016107b4565b506113f084848484612633565b50505050565b7f000000000000000000000000000000000000000000000000000000000000000073ffffffffffffffffffffffffffffffffffffffff7f0000000000000000000000000000000000000000000000000000000000000000167fffffffffffffffffffffffffeeeeffffffffffffffffffffffffffffffffeeef330173ffffffffffffffffffffffffffffffffffffffff161433906114d9576040517f8e4a23d600000000000000000000000000000000000000000000000000000000815273ffffffffffffffffffffffffffffffffffffffff90911660048201526024016107b4565b50611513565b6040517f8e4a23d60000000000000000000000000000000000000000000000000000000081523360048201526024016107b4565b6115218787878787876121be565b50505050505050565b7f8e94fed44239eb2314ab7a406345e6c5a8f0ccedf3b600de3d004e672c33abf4545f819003611586576040517fdd7e362100000000000000000000000000000000000000000000000000000000815260040160405180910390fd5b600181146115c0576040517fab143c0600000000000000000000000000000000000000000000000000000000815260040160405180910390fd5b60027f8e94fed44239eb2314ab7a406345e6c5a8f0ccedf3b600de3d004e672c33abf455815f0361161d576040517f5e85ae7300000000000000000000000000000000000000000000000000000000815260040160405180910390fd5b611629848484336123dd565b60017f8e94fed44239eb2314ab7a406345e6c5a8f0ccedf3b600de3d004e672c33abf45550505050565b827f000000000000000000000000000000000000000000000000000000000000000081036114df5773ffffffffffffffffffffffffffffffffffffffff7f0000000000000000000000000000000000000000000000000000000000000000167fffffffffffffffffffffffffeeeeffffffffffffffffffffffffffffffffeeef330173ffffffffffffffffffffffffffffffffffffffff1614339061173d576040517f8e4a23d600000000000000000000000000000000000000000000000000000000815273ffffffffffffffffffffffffffffffffffffffff90911660048201526024016107b4565b506113f08383611b87565b611750611c04565b6065805473ffffffffffffffffffffffffffffffffffffffff83167fffffffffffffffffffffffff000000000000000000000000000000000000000090911681179091556117b360335473ffffffffffffffffffffffffffffffffffffffff1690565b73ffffffffffffffffffffffffffffffffffffffff167f38d16b8cac22d99fc7c124b9cd0de2d3fa1faef420bfe791d8c362d765e2270060405160405180910390a350565b5f80611808620100006004613bfc565b6040517ffd3f60df00000000000000000000000000000000000000000000000000000000815273ffffffffffffffffffffffffffffffffffffffff8581166004830152919091169063fd3f60df90602401602060405180830381865afa158015611874573d5f5f3e3d5ffd5b505050506040513d601f19601f820116820180604052508101906118989190613ccd565b9050806118a757505f92915050565b5f6118b6620100006004613bfc565b73ffffffffffffffffffffffffffffffffffffffff16635f3455b5836040518263ffffffff1660e01b81526004016118f091815260200190565b602060405180830381865afa15801561190b573d5f5f3e3d5ffd5b505050506040513d601f19601f8201168201806040525081019061192f9190613ccd565b90507f0000000000000000000000000000000000000000000000000000000000000000811461196157505f9392505050565b8373ffffffffffffffffffffffffffffffffffffffff166313096a416040518163ffffffff1660e01b8152600401602060405180830381865afa1580156119aa573d5f5f3e3d5ffd5b505050506040513d601f19601f820116820180604052508101906119ce9190613ce4565b949350505050565b5f806119e6620100006004613bfc565b6040517ff5f1516800000000000000000000000000000000000000000000000000000000815273ffffffffffffffffffffffffffffffffffffffff85811660048301529192505f9183169063f5f1516890602401602060405180830381865afa158015611a55573d5f5f3e3d5ffd5b505050506040513d601f19601f82011682018060405250810190611a799190613ce4565b905073ffffffffffffffffffffffffffffffffffffffff811615611a9e579392505050565b6040517fc487412c0000000000000000000000000000000000000000000000000000000081527f0000000000000000000000000000000000000000000000000000000000000000600482015273ffffffffffffffffffffffffffffffffffffffff858116602483015283169063c487412c90604401602060405180830381865afa1580156119aa573d5f5f3e3d5ffd5b5f5f5f611b3b858561279b565b90945092509050848482611b7d576040517fe7c8d4cf0000000000000000000000000000000000000000000000000000000081526004016107b4929190613cba565b5050509250929050565b5f82815260c9602052604080822080547fffffffffffffffffffffffff00000000000000000000000000000000000000001673ffffffffffffffffffffffffffffffffffffffff85169081179091559051909184917f2632cc0d58b0cb1017b99cc0b6cc66ad86440cc0dd923bfdaa294f95ba1b02019190a35050565b60335473ffffffffffffffffffffffffffffffffffffffff163314610ace576040517f08c379a000000000000000000000000000000000000000000000000000000000815260206004820181905260248201527f4f776e61626c653a2063616c6c6572206973206e6f7420746865206f776e657260448201526064016107b4565b611c8d612859565b609780547fffffffffffffffffffffffffffffffffffffffffffffffffffffffffffffff001690557f5db9ee0a495bf2e6ff9c91a7834c1ba4fdd244a5e8aa4e537bd38aeae4b073aa335b60405173ffffffffffffffffffffffffffffffffffffffff909116815260200160405180910390a1565b5f80611d407f00000000000000000000000000000000000000000000000000000000000000008288878983611d3b620100006004613bfc565b6128c5565b905060608380611d8457507f000000000000000000000000000000000000000000000000000000000000000073ffffffffffffffffffffffffffffffffffffffff16155b15611da557611d938783612a37565b9050611d9e81612a89565b9250611fc3565b5f611db4620100006004613bfc565b73ffffffffffffffffffffffffffffffffffffffff166397bb3ce9896040518263ffffffff1660e01b8152600401611dee91815260200190565b602060405180830381865afa158015611e09573d5f5f3e3d5ffd5b505050506040513d601f19601f82011682018060405250810190611e2d9190613ce4565b73ffffffffffffffffffffffffffffffffffffffff166313096a416040518163ffffffff1660e01b8152600401602060405180830381865afa158015611e75573d5f5f3e3d5ffd5b505050506040513d601f19601f82011682018060405250810190611e999190613ce4565b90508773ffffffffffffffffffffffffffffffffffffffff8216611eec576040517f04a0b7e90000000000000000000000000000000000000000000000000000000081526004016107b491815260200190565b505f5f611ef889612b0f565b5091509150611f08818484612b6e565b6040517fff21c12500000000000000000000000000000000000000000000000000000000815290945073ffffffffffffffffffffffffffffffffffffffff7f0000000000000000000000000000000000000000000000000000000000000000169063ff21c12590611f7d908790600401613776565b6020604051808303815f875af1158015611f99573d5f5f3e3d5ffd5b505050506040513d601f19601f82011682018060405250810190611fbd9190613ccd565b95505050505b868573ffffffffffffffffffffffffffffffffffffffff167f55362fc62473cb1255e770af5d5e02ba6ee5bc7ed6969c30eb11ca31b92384dc7f00000000000000000000000000000000000000000000000000000000000000008960405161202c929190613cff565b60405180910390a35050949350505050565b3373ffffffffffffffffffffffffffffffffffffffff8416145f816120635733612071565b612071620100006004613bfc565b604080514660208083019190915273ffffffffffffffffffffffffffffffffffffffff8416828401526060808301899052835180840390910181526080909201909252805191012090915082806120ea57505f81815260ca602052604090205473ffffffffffffffffffffffffffffffffffffffff1633145b339061213b576040517f8e4a23d600000000000000000000000000000000000000000000000000000000815273ffffffffffffffffffffffffffffffffffffffff90911660048201526024016107b4565b506121468185611b87565b5f81815260ca602090815260409182902080547fffffffffffffffffffffffff000000000000000000000000000000000000000016339081179091559151918252869183917f78d918cd43d6ef25bef97471990c81ebfaa55cc35e696326f6fd05b4c976d5d8910160405180910390a3505050505050565b5f6121e97f000000000000000000000000000000000000000000000000000000000000000086612bf2565b90505f61222e8888888888888080601f0160208091040260200160405190810160405280939291908181526020018383808284375f92019190915250612c5292505050565b6040517f9c884fd10000000000000000000000000000000000000000000000000000000081529091503090639c884fd1903490612293907f00000000000000000000000000000000000000000000000000000000000000009087908790600401613c28565b5f604051808303818588803b1580156122aa575f5ffd5b505af11580156122bc573d5f5f3e3d5ffd5b50505050505050505050505050565b6123106040518060a001604052805f81526020015f73ffffffffffffffffffffffffffffffffffffffff16815260200160608152602001606081526020015f81525090565b612318612c87565b5f84845f81811061232b5761232b613c46565b7fff000000000000000000000000000000000000000000000000000000000000009201358216925050810161237057612368888888888888612cf4565b9150506123a2565b6040517f084a144900000000000000000000000000000000000000000000000000000000815260040160405180910390fd5b9695505050505050565b606580547fffffffffffffffffffffffff0000000000000000000000000000000000000000169055610a2581612eea565b5f6123e7846117f8565b905073ffffffffffffffffffffffffffffffffffffffff8116612436576040517f1850b46b00000000000000000000000000000000000000000000000000000000815260040160405180910390fd5b5f6124617f000000000000000000000000000000000000000000000000000000000000000083612bf2565b90505f61246f858888612f60565b905061247d8282865f611d02565b5050505050505050565b61248f612c87565b609780547fffffffffffffffffffffffffffffffffffffffffffffffffffffffffffffff001660011790557f62e78cea01bee320cd4e420270b5ea74000d11b0c9f74754ebdbfc544b05a258611cd83390565b5f84815260c9602052604090205473ffffffffffffffffffffffffffffffffffffffff168015612599576040517f36ba035500000000000000000000000000000000000000000000000000000000815273ffffffffffffffffffffffffffffffffffffffff8216906336ba0355903490612566908a908a908a908a90600401613d17565b5f604051808303818588803b15801561257d575f5ffd5b505af115801561258f573d5f5f3e3d5ffd5b5050505050610c78565b6125a38583611b87565b6040517f36ba035500000000000000000000000000000000000000000000000000000000815273ffffffffffffffffffffffffffffffffffffffff8316906336ba03559034906125fd908a908a908a908a90600401613d17565b5f604051808303818588803b158015612614575f5ffd5b505af1158015612626573d5f5f3e3d5ffd5b5050505050505050505050565b5f83815260c9602052604090205473ffffffffffffffffffffffffffffffffffffffff168381612692576040517ffde974f40000000000000000000000000000000000000000000000000000000081526004016107b491815260200190565b508073ffffffffffffffffffffffffffffffffffffffff1663699b0fb934875f88886126bf895f5f612f60565b6040518763ffffffff1660e01b81526004016126df959493929190613d36565b5f6040518083038185885af11580156126fa573d5f5f3e3d5ffd5b50505050506040513d5f823e601f3d9081017fffffffffffffffffffffffffffffffffffffffffffffffffffffffffffffffe01682016040526127409190810190613d81565b50604080518581526020810184905273ffffffffffffffffffffffffffffffffffffffff85169187917f0f87e1ea5eb1f034a6071ef630c174063e3d48756f853efaaf4292b929298240910160405180910390a35050505050565b5f5f5f5f5f365f365f6127ae8b8b612f9e565b9550955095509550955095508580156127e757507fffff0000000000000000000000000000000000000000000000000000000000008516155b80156127f35750602183105b801561280757508015806128075750601481145b612813575f5f5f612846565b6001612820846008613df6565b61282c90610100613e0d565b6128368587613e20565b901c6128428385613e5c565b60601c5b9850985098505050505050509250925092565b60975460ff16610ace576040517f08c379a000000000000000000000000000000000000000000000000000000000815260206004820152601460248201527f5061757361626c653a206e6f742070617573656400000000000000000000000060448201526064016107b4565b5f85815260c9602052604090205460609073ffffffffffffffffffffffffffffffffffffffff1680612976576040517f49b4085300000000000000000000000000000000000000000000000000000000815273ffffffffffffffffffffffffffffffffffffffff8416906349b40853906129459088908b90600401613ec1565b5f604051808303815f87803b15801561295c575f5ffd5b505af115801561296e573d5f5f3e3d5ffd5b505050508290505b5f84612982575f612984565b345b90508173ffffffffffffffffffffffffffffffffffffffff1663699b0fb9828c8c8c8c8c6040518763ffffffff1660e01b81526004016129c8959493929190613d36565b5f6040518083038185885af11580156129e3573d5f5f3e3d5ffd5b50505050506040513d5f823e601f3d9081017fffffffffffffffffffffffffffffffffffffffffffffffffffffffffffffffe0168201604052612a299190810190613d81565b9a9950505050505050505050565b604051606090612a71907f9c884fd10000000000000000000000000000000000000000000000000000000090469086908690602001613ef9565b60405160208183030381529060405290505b92915050565b5f612a976180006008613bfc565b73ffffffffffffffffffffffffffffffffffffffff166362f84b24836040518263ffffffff1660e01b8152600401612acf9190613776565b6020604051808303815f875af1158015612aeb573d5f5f3e3d5ffd5b505050506040513d601f19601f82011682018060405250810190612a839190613ccd565b5f5f5f8351606014612b4d576040517fde4c0b9600000000000000000000000000000000000000000000000000000000815260040160405180910390fd5b83806020019051810190612b619190613f38565b9196909550909350915050565b6040517f11a2ccc1000000000000000000000000000000000000000000000000000000006020820152606084811b7fffffffffffffffffffffffffffffffffffffffff000000000000000000000000908116602484015284821b166038830152604c820183905290606c015b60405160208183030381529060405290509392505050565b5f82612c02620100006004613bfc565b60408051602081019390935273ffffffffffffffffffffffffffffffffffffffff918216908301528316606082015260800160405160208183030381529060405280519060200120905092915050565b60608585858585604051602001612c6d959493929190613f6e565b604051602081830303815290604052905095945050505050565b60975460ff1615610ace576040517f08c379a000000000000000000000000000000000000000000000000000000000815260206004820152601060248201527f5061757361626c653a207061757365640000000000000000000000000000000060448201526064016107b4565b612d396040518060a001604052805f81526020015f73ffffffffffffffffffffffffffffffffffffffff16815260200160608152602001606081526020015f81525090565b5f84845f818110612d4c57612d4c613c46565b9050013560f81c60f81b90505f5f612d66838a8989613128565b6040517fe52db4ca000000000000000000000000000000000000000000000000000000008152600481018d90529193509150829073ffffffffffffffffffffffffffffffffffffffff7f0000000000000000000000000000000000000000000000000000000000000000169063e52db4ca90602401602060405180830381865afa158015612df6573d5f5f3e3d5ffd5b505050506040513d601f19601f82011682018060405250810190612e1a9190613ccd565b14158290612e57576040517f04a0b7e90000000000000000000000000000000000000000000000000000000081526004016107b491815260200190565b505f612e698b8a858d8660018c6128c5565b90505f612e79858c868a876131b6565b9050612e878b8584846133cf565b95508a73ffffffffffffffffffffffffffffffffffffffff16818d7fe21913bc89c1320d9709a5d236ffe06b54cf88aecfc9509ebd68f1adba45781e8786604051612ed3929190613cff565b60405180910390a450505050509695505050505050565b6033805473ffffffffffffffffffffffffffffffffffffffff8381167fffffffffffffffffffffffff0000000000000000000000000000000000000000831681179093556040519116919082907f8be0079c531659141344cd1fd0a4f28419497f9722a3daafe3b4186f6b6457e0905f90a35050565b6060838383604051602001612bda9392919092835273ffffffffffffffffffffffffffffffffffffffff918216602084015216604082015260600190565b60015f368181816006871015612fc457505f94508493508392508291508190508061311e565b7fffff0000000000000000000000000000000000000000000000000000000000008835167e01000000000000000000000000000000000000000000000000000000000000811461302657505f955085945084935083925082915081905061311e565b60028901357fffff0000000000000000000000000000000000000000000000000000000000001695505f8989600481811061306357613063613c46565b919091013560f81c9150506006810160ff1689101561309657505f965086955085945084935083925082915061311e9050565b6130a9600582810160ff16908b8d613b33565b955095505f8a8a8360050160ff168181106130c6576130c6613c46565b919091013560f81c91505081810160060160ff168a10156130fc57505f975087965086955085945084935083925061311e915050565b61311660ff60068484018101821691908501168c8e613b33565b945094505050505b9295509295509295565b5f60607fff000000000000000000000000000000000000000000000000000000000000008681160161237057602183101561318f576040517f9b821ed700000000000000000000000000000000000000000000000000000000815260040160405180910390fd5b61319c8360018187613b33565b8101906131a9919061378f565b9097909650945050505050565b5f7fff000000000000000000000000000000000000000000000000000000000000008616613337576040517f97bb3ce9000000000000000000000000000000000000000000000000000000008152600481018590525f9073ffffffffffffffffffffffffffffffffffffffff8516906397bb3ce990602401602060405180830381865afa158015613249573d5f5f3e3d5ffd5b505050506040513d601f19601f8201168201806040525081019061326d9190613ce4565b90505f61327a4683612bf2565b90508086146132d4576040517f1929b7de0000000000000000000000000000000000000000000000000000000081526004810187905273ffffffffffffffffffffffffffffffffffffffff831660248201526044016107b4565b5f6132de85612b0f565b50506040805173ffffffffffffffffffffffffffffffffffffffff808c1660208301528616918101919091526060810182905290915060800160405160208183030381529060405280519060200120935050505061098d565b7fff0000000000000000000000000000000000000000000000000000000000000086811601612370578585858460405160200161337693929190613fda565b604080517fffffffffffffffffffffffffffffffffffffffffffffffffffffffffffffffe0818403018152908290526133b2929160200161400e565b60405160208183030381529060405280519060200120905061098d565b6134146040518060a001604052805f81526020015f73ffffffffffffffffffffffffffffffffffffffff16815260200160608152602001606081526020015f81525090565b5f613420868686610a28565b6040805160a081019091529091508061345a60017fa175e001c0e5684bc26302c2f9a55aec9f3936fe2aef558034003ef4da7fc77e613e0d565b815260200161346d620100006003613bfc565b73ffffffffffffffffffffffffffffffffffffffff1681526020808201849052604080515f8082529281018252920191906134b8565b60608152602001906001900390816134a35790505b508152602001939093525090949350505050565b5f5f83601f8401126134dc575f5ffd5b50813567ffffffffffffffff8111156134f3575f5ffd5b60208301915083602082850101111561350a575f5ffd5b9250929050565b5f5f5f5f5f60608688031215613525575f5ffd5b85359450602086013567ffffffffffffffff811115613542575f5ffd5b61354e888289016134cc565b909550935050604086013567ffffffffffffffff81111561356d575f5ffd5b613579888289016134cc565b969995985093965092949392505050565b5f6020828403121561359a575f5ffd5b5035919050565b73ffffffffffffffffffffffffffffffffffffffff81168114610a25575f5ffd5b7f4e487b71000000000000000000000000000000000000000000000000000000005f52604160045260245ffd5b604051601f82017fffffffffffffffffffffffffffffffffffffffffffffffffffffffffffffffe016810167ffffffffffffffff81118282101715613636576136366135c2565b604052919050565b5f67ffffffffffffffff821115613657576136576135c2565b50601f017fffffffffffffffffffffffffffffffffffffffffffffffffffffffffffffffe01660200190565b5f82601f830112613692575f5ffd5b81356136a56136a08261363e565b6135ef565b8181528460208386010111156136b9575f5ffd5b816020850160208301375f918101602001919091529392505050565b5f5f5f606084860312156136e7575f5ffd5b83356136f2816135a1565b925060208401359150604084013567ffffffffffffffff811115613714575f5ffd5b61372086828701613683565b9150509250925092565b5f81518084528060208401602086015e5f6020828601015260207fffffffffffffffffffffffffffffffffffffffffffffffffffffffffffffffe0601f83011685010191505092915050565b602081525f613788602083018461372a565b9392505050565b5f5f604083850312156137a0575f5ffd5b82359150602083013567ffffffffffffffff8111156137bd575f5ffd5b6137c985828601613683565b9150509250929050565b5f5f604083850312156137e4575f5ffd5b8235915060208301356137f6816135a1565b809150509250929050565b5f5f5f5f5f5f60a08789031215613816575f5ffd5b8635613821816135a1565b95506020870135613831816135a1565b94506040870135613841816135a1565b935060608701359250608087013567ffffffffffffffff811115613863575f5ffd5b61386f89828a016134cc565b979a9699509497509295939492505050565b5f5f5f5f5f60808688031215613895575f5ffd5b8535945060208601356138a7816135a1565b935060408601359250606086013567ffffffffffffffff81111561356d575f5ffd5b602081525f8251606060208401526138e4608084018261372a565b905060208401517fffffffffffffffffffffffffffffffffffffffffffffffffffffffffffffffe084830301604085015261391f828261372a565b91505060408401517fffffffffffffffffffffffffffffffffffffffffffffffffffffffffffffffe084830301606085015281815180845260208401915060208160051b8501016020840193505f5b828110156139bd577fffffffffffffffffffffffffffffffffffffffffffffffffffffffffffffffe08683030184526139a882865161372a565b6020958601959490940193915060010161396e565b50979650505050505050565b5f5f5f5f608085870312156139dc575f5ffd5b84356139e7816135a1565b935060208501356139f7816135a1565b9250604085013591506060850135613a0e816135a1565b939692955090935050565b5f5f5f5f60608587031215613a2c575f5ffd5b8435935060208501359250604085013567ffffffffffffffff811115613a50575f5ffd5b613a5c878288016134cc565b95989497509550505050565b5f5f5f5f60808587031215613a7b575f5ffd5b84359350602085013592506040850135613a94816135a1565b9396929550929360600135925050565b5f5f5f60608486031215613ab6575f5ffd5b8335613ac1816135a1565b92506020840135613ad1816135a1565b929592945050506040919091013590565b5f5f5f60608486031215613af4575f5ffd5b83359250602084013591506040840135613b0d816135a1565b809150509250925092565b5f60208284031215613b28575f5ffd5b8135613788816135a1565b5f5f85851115613b41575f5ffd5b83861115613b4d575f5ffd5b5050820193919092039150565b80357fffffffff000000000000000000000000000000000000000000000000000000008116906004841015613bb9577fffffffff00000000000000000000000000000000000000000000000000000000808560040360031b1b82161691505b5092915050565b818382375f9101908152919050565b7f4e487b71000000000000000000000000000000000000000000000000000000005f52601160045260245ffd5b73ffffffffffffffffffffffffffffffffffffffff8181168382160190811115612a8357612a83613bcf565b838152826020820152606060408201525f61098d606083018461372a565b7f4e487b71000000000000000000000000000000000000000000000000000000005f52603260045260245ffd5b81835281816020850137505f602082840101525f60207fffffffffffffffffffffffffffffffffffffffffffffffffffffffffffffffe0601f840116840101905092915050565b602081525f6119ce602083018486613c73565b5f60208284031215613cdd575f5ffd5b5051919050565b5f60208284031215613cf4575f5ffd5b8151613788816135a1565b828152604060208201525f6119ce604083018461372a565b848152836020820152606060408201525f6123a2606083018486613c73565b85815284602082015283604082015273ffffffffffffffffffffffffffffffffffffffff8316606082015260a060808201525f613d7660a083018461372a565b979650505050505050565b5f60208284031215613d91575f5ffd5b815167ffffffffffffffff811115613da7575f5ffd5b8201601f81018413613db7575f5ffd5b8051613dc56136a08261363e565b818152856020838501011115613dd9575f5ffd5b8160208401602083015e5f91810160200191909152949350505050565b8082028115828204841417612a8357612a83613bcf565b81810381811115612a8357612a83613bcf565b80356020831015612a83577fffffffffffffffffffffffffffffffffffffffffffffffffffffffffffffffff602084900360031b1b1692915050565b80357fffffffffffffffffffffffffffffffffffffffff0000000000000000000000008116906014841015613bb9577fffffffffffffffffffffffffffffffffffffffff000000000000000000000000808560140360031b1b82161691505092915050565b604081525f613ed3604083018561372a565b90508260208301529392505050565b5f81518060208401855e5f93019283525090919050565b7fffffffff00000000000000000000000000000000000000000000000000000000851681528360048201528260248201525f6123a26044830184613ee2565b5f5f5f60608486031215613f4a575f5ffd5b83516020850151909350613f5d816135a1565b6040850151909250613b0d816135a1565b73ffffffffffffffffffffffffffffffffffffffff8616815273ffffffffffffffffffffffffffffffffffffffff8516602082015273ffffffffffffffffffffffffffffffffffffffff8416604082015282606082015260a060808201525f613d7660a083018461372a565b73ffffffffffffffffffffffffffffffffffffffff84168152826020820152606060408201525f61098d606083018461372a565b7fff00000000000000000000000000000000000000000000000000000000000000831681525f6119ce6001830184613ee256fea2646970667358221220a50354666570ebaa30c96ff50ce1019023341dd48718fcc1d90898a45f78966764736f6c634300081c0033","linkReferences":{}},"methodIdentifiers":{"BASE_TOKEN_ASSET_ID()":"cb944dec","BRIDGE_HUB()":"5d4edca7","ERA_CHAIN_ID()":"ef011dff","INTEROP_CENTER()":"5ecd0e3a","L1_ASSET_ROUTER()":"cdf25430","L1_CHAIN_ID()":"2f90b184","L2_LEGACY_SHARED_BRIDGE()":"c438a9f2","acceptOwnership()":"79ba5097","assetDeploymentTracker(bytes32)":"85e4e16a","assetHandlerAddress(bytes32)":"53b9e632","bridgehubDepositBaseToken(uint256,bytes32,address,uint256)":"c4879440","finalizeDeposit(address,address,address,uint256,bytes)":"cfe7af7c","finalizeDeposit(uint256,bytes32,bytes)":"9c884fd1","finalizeDepositLegacyBridge(address,address,address,uint256,bytes)":"54b2e69c","getDepositCalldata(address,bytes32,bytes)":"2ff0b2ea","initiateBridging(uint256,address,uint256,bytes)":"6d7c24da","l1Bridge()":"969b53da","l1TokenAddress(address)":"f54266a2","l2TokenAddress(address)":"f5f15168","owner()":"8da5cb5b","pause()":"8456cb59","paused()":"5c975abb","pendingOwner()":"e30c3978","receiveMessage(bytes32,bytes,bytes)":"2432ef26","renounceOwnership()":"715018a6","setAssetHandlerAddress(uint256,bytes32,address)":"da556bdc","setAssetHandlerAddressThisChain(bytes32,address)":"548a5a33","setLegacyTokenAssetHandler(bytes32)":"2ed342aa","transferOwnership(address)":"f2fde38b","unpause()":"3f4ba83a","withdraw(address,address,uint256)":"d9caed12","withdraw(bytes32,bytes)":"4a2e35ba","withdrawLegacyBridge(address,address,uint256,address)":"7ac3a553"},"id":13}