{
  "abi": [
    {
      "type": "function",
      "name": "proveL2LeafInclusionShared",
      "inputs": [
        {
          "name": "_chainId",
          "type": "uint256",
          "internalType": "uint256"
        },
        {
          "name": "_blockOrBatchNumber",
          "type": "uint256",
          "internalType": "uint256"
        },
        {
          "name": "_leafProofMask",
          "type": "uint256",
          "internalType": "uint256"
        },
        {
          "name": "_leaf",
          "type": "bytes32",
          "internalType": "bytes32"
        },
        {
          "name": "_proof",
          "type": "bytes32[]",
          "internalType": "bytes32[]"
        }
      ],
      "outputs": [
        {
          "name": "",
          "type": "bool",
          "internalType": "bool"
        }
      ],
      "stateMutability": "view"
    },
    {
      "type": "function",
      "name": "proveL2LogInclusionShared",
      "inputs": [
        {
          "name": "_chainId",
          "type": "uint256",
          "internalType": "uint256"
        },
        {
          "name": "_blockOrBatchNumber",
          "type": "uint256",
          "internalType": "uint256"
        },
        {
          "name": "_index",
          "type": "uint256",
          "internalType": "uint256"
        },
        {
          "name": "_log",
          "type": "tuple",
          "internalType": "struct L2Log",
          "components": [
            {
              "name": "l2ShardId",
              "type": "uint8",
              "internalType": "uint8"
            },
            {
              "name": "isService",
              "type": "bool",
              "internalType": "bool"
            },
            {
              "name": "txNumberInBatch",
              "type": "uint16",
              "internalType": "uint16"
            },
            {
              "name": "sender",
              "type": "address",
              "internalType": "address"
            },
            {
              "name": "key",
              "type": "bytes32",
              "internalType": "bytes32"
            },
            {
              "name": "value",
              "type": "bytes32",
              "internalType": "bytes32"
            }
          ]
        },
        {
          "name": "_proof",
          "type": "bytes32[]",
          "internalType": "bytes32[]"
        }
      ],
      "outputs": [
        {
          "name": "",
          "type": "bool",
          "internalType": "bool"
        }
      ],
      "stateMutability": "view"
    },
    {
      "type": "function",
      "name": "proveL2MessageInclusionShared",
      "inputs": [
        {
          "name": "_chainId",
          "type": "uint256",
          "internalType": "uint256"
        },
        {
          "name": "_blockOrBatchNumber",
          "type": "uint256",
          "internalType": "uint256"
        },
        {
          "name": "_index",
          "type": "uint256",
          "internalType": "uint256"
        },
        {
          "name": "_message",
          "type": "tuple",
          "internalType": "struct L2Message",
          "components": [
            {
              "name": "txNumberInBatch",
              "type": "uint16",
              "internalType": "uint16"
            },
            {
              "name": "sender",
              "type": "address",
              "internalType": "address"
            },
            {
              "name": "data",
              "type": "bytes",
              "internalType": "bytes"
            }
          ]
        },
        {
          "name": "_proof",
          "type": "bytes32[]",
          "internalType": "bytes32[]"
        }
      ],
      "outputs": [
        {
          "name": "",
          "type": "bool",
          "internalType": "bool"
        }
      ],
      "stateMutability": "view"
    },
    {
      "type": "error",
      "name": "HashedLogIsDefault",
      "inputs": []
    },
    {
      "type": "error",
      "name": "InvalidProofLengthForFinalNode",
      "inputs": []
    },
    {
      "type": "error",
      "name": "MerkleIndexOutOfBounds",
      "inputs": []
    },
    {
      "type": "error",
      "name": "MerklePathEmpty",
      "inputs": []
    },
    {
      "type": "error",
      "name": "MerklePathOutOfBounds",
      "inputs": []
    },
    {
      "type": "error",
      "name": "UnsupportedProofMetadataVersion",
      "inputs": [
        {
          "name": "metadataVersion",
          "type": "uint256",
          "internalType": "uint256"
        }
      ]
    }
  ],
  "bytecode": {
    "object": "0x6080604052348015600e575f5ffd5b506110a28061001c5f395ff3fe608060405234801561000f575f5ffd5b506004361061003f575f3560e01c806318b7fc221461004357806379cf61651461006a578063e896760d1461007d575b5f5ffd5b610056610051366004610ae5565b610090565b604051901515815260200160405180910390f35b610056610078366004610b6f565b6100bc565b61005661008b366004610bb6565b6100cb565b5f6100af8787876100a86100a389610d30565b6100e1565b8787610197565b90505b9695505050505050565b5f6100af8787878787876101be565b5f6100af8787876100a836899003890189610e1d565b6040805160c0810182525f80825260208201819052918101829052606081018290526080810182905260a08101919091526040805160c0810182525f815260016020820152835161ffff1691810191909152606081016101446180006008610ec8565b73ffffffffffffffffffffffffffffffffffffffff168152602001836020015173ffffffffffffffffffffffffffffffffffffffff165f1b81526020018360400151805190602001208152509050919050565b5f5f6101a285610339565b90506101b28888888488886101be565b98975050505050505050565b5f5f6101ce88888888888861041e565b90508060e001511561029c575f6101e9620100006008610ec8565b6040517f77cfd171000000000000000000000000000000000000000000000000000000008152600481018b9052602481018a905273ffffffffffffffffffffffffffffffffffffffff91909116906377cfd17190604401602060405180830381865afa15801561025b573d5f5f3e3d5ffd5b505050506040513d601f19601f8201168201806040525081019061027f9190610ef4565b905081608001518114801561029357508015155b925050506100b2565b3073ffffffffffffffffffffffffffffffffffffffff166379cf6165825f0151836020015184604001518560a001516102da8a8a8960c001516106ed565b6040518663ffffffff1660e01b81526004016102fa959493929190610f0b565b602060405180830381865afa158015610315573d5f5f3e3d5ffd5b505050506040513d601f19601f820116820180604052508101906101b29190610f6d565b80516020808301516040808501516060860151608087015160a088015193515f9761040197909695910160f896871b7fff0000000000000000000000000000000000000000000000000000000000000016815294151590951b600185015260f09290921b7fffff00000000000000000000000000000000000000000000000000000000000016600284015260601b7fffffffffffffffffffffffffffffffffffffffff0000000000000000000000001660048301526018820152603881019190915260580190565b604051602081830303815290604052805190602001209050919050565b6104606040518061010001604052805f81526020015f81526020015f81526020015f81526020015f81526020015f81526020015f81526020015f151581525090565b5f82900361049a576040517f8e23ac1a00000000000000000000000000000000000000000000000000000000815260040160405180910390fd5b7f8d5411ba4a61cbb507591adfdbe3b8bb500d912bee0b3b4ff0750f652525bc4684016104f3576040517fd356e6ba00000000000000000000000000000000000000000000000000000000815260040160405180910390fd5b5f6104fe8484610703565b805160c0840181905260208201519192505f916105339161052c91889188916105279082610f8f565b610832565b88886108de565b905081602001518360c00181815161054b9190610f8f565b90525060808301819052606082018051151560e0850152511561056f5750506100b2565b5f61057a828a610985565b90505f86868660c0015181811061059357610593610fa2565b905060200201355f1c90508460c00180516105ad90610fcf565b905260c085015160408501515f916105d9916105d2918b918b91906105279082610f8f565b83856108de565b905084604001518660c0018181516105f19190610f8f565b9052506105fe818d6109e1565b8660a0018181525050505050505f5f5f5f87878760c0015181811061062557610625610fa2565b905060200201355f1c90508560c001805161063f90610fcf565b905260c0860151608082901c93506fffffffffffffffffffffffffffffffff821692508890889081811061067557610675610fa2565b905060200201355f1c93508560c001805161068f90610fcf565b90525060408051610100810182529384526020840192909252828201528201516060808301919091526080848101519083015260a0808501519083015260c09384015193820193909352910151151560e08201529695505050505050565b60606106fb84848481610832565b949350505050565b61072c60405180608001604052805f81526020015f81526020015f81526020015f151581525090565b5f83835f81811061073f5761073f610fa2565b6020908102929092013592505081901b5f8190036107c7578160f881901c6001146107a0576040517f79274f0400000000000000000000000000000000000000000000000000000000815260f882901c600482015260240160405180910390fd5b600180855283901a60208501528260021a60408501528260031a15156060850152506107df565b5f808452602084018590526040840152600160608401525b826060015180156107f35750604083015115155b1561082a576040517f48c5fa2800000000000000000000000000000000000000000000000000000000815260040160405180910390fd5b505092915050565b606061083e8383611006565b67ffffffffffffffff81111561085657610856610c2f565b60405190808252806020026020018201604052801561087f578160200160208202803683370190505b509050825b828110156108d55785858281811061089e5761089e610fa2565b905060200201358285836108b29190611006565b815181106108c2576108c2610fa2565b6020908102919091010152600101610884565b50949350505050565b82515f906108ec8482610a22565b825f5b8281101561097b57610902600287611046565b156109385761093387828151811061091c5761091c610fa2565b6020026020010151835f9182526020526040902090565b610964565b6109648288838151811061094e5761094e610fa2565b60200260200101515f9182526020526040902090565b9150610971600287611059565b95506001016108ef565b5095945050505050565b604080517fd82fec4a37cbdc47f1e5cc4ad64deacf34a48e6f7c61fa5b68fd58e543259cf46020820152908101839052606081018290525f906080015b6040516020818303038152906040528051906020012090505b92915050565b604080517f39bc69363bb9e26cf14240de4e22569e95cf175cfbcf1ade1a47a253b4bf7f616020820152908101839052606081018290525f906080016109c2565b6101008110610a5d576040517f1c50038500000000000000000000000000000000000000000000000000000000815260040160405180910390fd5b6001811b8210610a99576040517f9bb54c3500000000000000000000000000000000000000000000000000000000815260040160405180910390fd5b5050565b5f5f83601f840112610aad575f5ffd5b50813567ffffffffffffffff811115610ac4575f5ffd5b6020830191508360208260051b8501011115610ade575f5ffd5b9250929050565b5f5f5f5f5f5f60a08789031215610afa575f5ffd5b863595506020870135945060408701359350606087013567ffffffffffffffff811115610b25575f5ffd5b87016060818a031215610b36575f5ffd5b9250608087013567ffffffffffffffff811115610b51575f5ffd5b610b5d89828a01610a9d565b979a9699509497509295939492505050565b5f5f5f5f5f5f60a08789031215610b84575f5ffd5b86359550602087013594506040870135935060608701359250608087013567ffffffffffffffff811115610b51575f5ffd5b5f5f5f5f5f5f868803610140811215610bcd575f5ffd5b87359650602088013595506040880135945060c07fffffffffffffffffffffffffffffffffffffffffffffffffffffffffffffffa082011215610c0e575f5ffd5b5060608701925061012087013567ffffffffffffffff811115610b51575f5ffd5b7f4e487b71000000000000000000000000000000000000000000000000000000005f52604160045260245ffd5b6040516060810167ffffffffffffffff81118282101715610c7f57610c7f610c2f565b60405290565b60405160c0810167ffffffffffffffff81118282101715610c7f57610c7f610c2f565b604051601f82017fffffffffffffffffffffffffffffffffffffffffffffffffffffffffffffffe016810167ffffffffffffffff81118282101715610cef57610cef610c2f565b604052919050565b803561ffff81168114610d08575f5ffd5b919050565b803573ffffffffffffffffffffffffffffffffffffffff81168114610d08575f5ffd5b5f60608236031215610d40575f5ffd5b610d48610c5c565b610d5183610cf7565b8152610d5f60208401610d0d565b6020820152604083013567ffffffffffffffff811115610d7d575f5ffd5b830136601f820112610d8d575f5ffd5b803567ffffffffffffffff811115610da757610da7610c2f565b610dd860207fffffffffffffffffffffffffffffffffffffffffffffffffffffffffffffffe0601f84011601610ca8565b818152366020838501011115610dec575f5ffd5b816020840160208301375f9181016020019190915260408301525092915050565b8015158114610e1a575f5ffd5b50565b5f60c0828403128015610e2e575f5ffd5b50610e37610c85565b823560ff81168114610e47575f5ffd5b81526020830135610e5781610e0d565b6020820152610e6860408401610cf7565b6040820152610e7960608401610d0d565b60608201526080838101359082015260a0928301359281019290925250919050565b7f4e487b71000000000000000000000000000000000000000000000000000000005f52601160045260245ffd5b73ffffffffffffffffffffffffffffffffffffffff81811683821601908111156109db576109db610e9b565b5f60208284031215610f04575f5ffd5b5051919050565b5f60a0820187835286602084015285604084015284606084015260a0608084015280845180835260c0850191506020860192505f5b81811015610f5e578351835260209384019390920191600101610f40565b50909998505050505050505050565b5f60208284031215610f7d575f5ffd5b8151610f8881610e0d565b9392505050565b808201808211156109db576109db610e9b565b7f4e487b71000000000000000000000000000000000000000000000000000000005f52603260045260245ffd5b5f7fffffffffffffffffffffffffffffffffffffffffffffffffffffffffffffffff8203610fff57610fff610e9b565b5060010190565b818103818111156109db576109db610e9b565b7f4e487b71000000000000000000000000000000000000000000000000000000005f52601260045260245ffd5b5f8261105457611054611019565b500690565b5f8261106757611067611019565b50049056fea264697066735822122025593989483f357793139977aa746379b67abe68fc1b0a08549e9e6de8c17ab164736f6c634300081c0033",
    "linkReferences": {}
  },
  "methodIdentifiers": {
    "proveL2LeafInclusionShared(uint256,uint256,uint256,bytes32,bytes32[])": "79cf6165",
    "proveL2LogInclusionShared(uint256,uint256,uint256,(uint8,bool,uint16,address,bytes32,bytes32),bytes32[])": "e896760d",
    "proveL2MessageInclusionShared(uint256,uint256,uint256,(uint16,address,bytes),bytes32[])": "18b7fc22"
  },
  "id": 152
}